:020000040800F2
:10000000E009002001010008E53C00086F2D000810
:10001000E13C0008CF01000809440008000000008E
:10002000000000000000000000000000713D00081A
:100030007102000800000000213D0008733D000827
:100040001B0100081B0100081B0100081B01000820
:100050001B0100081B0100081B0100081B01000810
:100060001B0100081B0100081B010008D501000846
:10007000E5010008F5010008050200081502000866
:1000800025020008350200086D010008E943000858
:10009000F94300081B0100081B0100081B010008B0
:1000A0001B010008593E00081B0100081B01000845
:1000B000693E0008793E0008893E0008752D000859
:1000C0001B0100081B0100081B0100084D3D000832
:1000D0001B010008B5430008C9430008D9430008C4
:1000E0001B0100081B0100081B010008DFF80CD0F1
:1000F00000F02AF8004800472D440008E0090020DD
:100100000648804706480047FEE7FEE7FEE7FEE7B1
:10011000FEE7FEE7FEE7FEE7FEE7FEE7013E00083A
:10012000ED000008D2B201E000F8012B491EFBD21D
:1001300070470022F6E710B513460A4604461946F2
:10014000FFF7F0FF204610BD064C074D06E0E068C3
:1001500040F0010394E8070098471034AC42F6D30E
:10016000FFF7C8FF484500086845000810B5024879
:1001700000F033F910BD00002000002070B50446E7
:1001800000252068806800F00100F0B120688068D8
:1001900020F001002168886001F062F805460EE059
:1001A00001F05EF8401B022809D9A06A40F0100057
:1001B000A062E06A40F00100E062012070BD2068AA
:1001C000806800F001000028EAD10020F6E700BFB7
:1001D000FEE7000010B5024800F04AFD10BD000027
:1001E0005000002010B5024800F042FD10BD000094
:1001F0006801002010B5024800F03AFD10BD000073
:10020000AC01002010B5024800F032FD10BD000026
:10021000F403002010B5024800F02AFD10BD0000D4
:10022000B003002010B5024800F022FD10BD000010
:100230003804002010B5024800F01AFD10BD00007F
:100240007C04002030B590F840500124AC40C56BD0
:100250006C60046863604468102C04D10468A26078
:100260000468E16003E00468A1600468E26030BDF6
:10027000704770477047000038B5024600230020E1
:10028000009000BF92F82400012801D1022038BD5F
:10029000012082F8240000BF4868072812D21068A5
:1002A000406B0C79641E04EB84051F24AC40A04312
:1002B0000D796D1E05EB85050C68AC402043146874
:1002C000606327E048680D2812D21068006B0C7933
:1002D000E41F04EB84051F24AC40A0430D79ED1FFF
:1002E00005EB85050C68AC4020431468206311E0E1
:1002F0001068C06A0C790D3C04EB84051F24AC40E7
:10030000A0430D790D3D05EB85050C68AC402043FD
:100310001468E06208680A2812D31068C0680C7874
:100320000A3C04EB44050724AC40A0430D780A3D89
:1003300005EB45058C68AC4020431468E0600FE095
:10034000106800690C7804EB44050724AC40A04316
:100350000D7805EB45058C68AC402043146820619E
:100360000868102802D00868112827D1174C106897
:10037000A0421ED11068806800F40000F0B9106837
:10038000806840F400001468A0600868102815D147
:100390000F4800680F4CB0FBF4F000EB8000400009
:1003A000009002E00098401E009000980028F9D1CB
:1003B00004E0906A40F020009062012300BF00201A
:1003C00082F8240000BF184661E7000000240140C5
:1003D0000C00002040420F00704710B50446206812
:1003E000406800F0200020282FD12068006800F02D
:1003F0000200022829D1A06A00F0100018B9A06AF2
:1004000040F40070A0622068806800F46020B0F5BD
:10041000602F13D1E06888B92068406820F0200080
:1004200021684860A06A20F48070A062A06A00F48D
:10043000805018B9A06A40F00100A0622046FFF782
:10044000CBFF6FF01200216808602068406800F060
:10045000800080283BD12068006800F00400042858
:1004600035D1A06A00F0100018B9A06A40F400501D
:10047000A0622068806800F4E040B0F5E04F0DD045
:100480002068406800F48060D0B92068806800F47B
:100490006020B0F5602F13D1E06888B9206840680B
:1004A00020F0800021684860A06A20F48050A0629B
:1004B000A06A00F4807018B9A06A40F00100A06240
:1004C0002046FFF7D7FE6FF00C0021680860206817
:1004D000406800F0400040280FD12068006800F01C
:1004E000010050B1A06A40F48030A062204600F0C4
:1004F000A7F86FF001002168086010BD2DE9F041F8
:100500000446002700250026A84614B90120BDE8AE
:10051000F081A06810B1606900B100BFA06A30B975
:100520000020E06284F82400204600F08BF820468A
:10053000FFF724FE0746A06A00F01000002873D1E0
:10054000002F71D1A06A20F4885040F00200A06210
:10055000E16960680843E16840EA41000643A06839
:10056000B0F5807F02D0A068012802D14FF48070DE
:1005700000E0002005436069012811D1E06838B926
:10058000A069401E4FF4006141EA4030054307E096
:10059000A06A40F02000A062E06A40F00100E06242
:1005A0002068406820F4694028432168486020683A
:1005B000806821490840304321688860A068B0F510
:1005C000807F02D0A068012802D14FF4807000E043
:1005D0000020B0F5807F03D1208A401E4FEA0058EA
:1005E0002068C06A20F4700040EA08002168C862F0
:1005F0002068806811490840B04208D10020E062BC
:10060000A06A20F0020040F00100A06211E0A06AA0
:1006100020F0020040F01000A062E06A40F001000B
:10062000E062012705E0FFE7A06A40F01000A06249
:10063000012738466BE70000FDF7E1FFFE0E1FFFC4
:100640007047000010B586B0044600200290039069
:100650000490059025492068884244D100BF244871
:10066000806940F40070224988610846806900F47E
:100670000070019000BF00BF00BF0846806940F0D5
:10068000080088610846806900F00800019000BFFA
:1006900000BF03200290039002A9164800F04CFC12
:1006A0001548164908600020486000211348816001
:1006B0008021C1604900016189004161002181619F
:1006C000C16100F0A3FB08B1FFF7D3FD00BF0B48E9
:1006D0002062446200BF00221146122001F00BF894
:1006E000122000F0FBFF06B010BD00000024014006
:1006F00000100240000C01400800024050000020A1
:1007000070472DE9F05F044600252068466920689F
:10071000D0F80490206887682068D0F80CA0206882
:10072000D0F810B02068D0F8188006F0010000283A
:1007300055D007F00100C0B101202168886007F0A2
:10074000020018B1204600F017FA0EE007F004008E
:1007500010B145F4006508E007F0080010B145F459
:10076000805502E0204600F006FA07F48070C8B118
:100770004FF480702168886007F4007018B120463B
:1007800000F0FCF90EE007F4806010B145F400556C
:1007900008E007F4006010B145F4804502E020460F
:1007A00000F0EBF907F48030C8B14FF480302168D5
:1007B000886007F4003018B1204600F0E1F90EE03F
:1007C00007F4802010B145F4004508E007F400204C
:1007D00010B145F4803502E0204600F0D0F906F073
:1007E000080038B10AF0100020B145F4007510205F
:1007F0002168C86006F0040040B10AF0080028B182
:1008000008202168C860204600F0B0F906F0020018
:1008100038B12068C06800F0030010B1204600F035
:10082000A6F906F0400038B10BF0100020B145F4F5
:10083000806510202168086106F0200040B10BF0AF
:10084000080028B1082021680861204600F090F9CE
:1008500006F0100038B12068006900F0030010B104
:10086000204600F086F906F4003040B109F010008F
:1008700028B1102021684860204600F07BF906F47A
:10088000803040B109F0080028B108202168486094
:10089000204600F076F906F4004088B309F0040021
:1008A00078B306F4807020B108F0010008B145F07B
:1008B000010506F4007020B108F0020008B145F00F
:1008C000020506F4806020B108F0040008B145F08C
:1008D000040506F40060A0B108F0700088B108F0CB
:1008E0007000402817D006DC10280BD020280CD030
:1008F000302819D10CE0502810D0602814D110E015
:100900001DE019E045F008050FE045F010050CE08A
:1009100045F0200509E045F0400506E045F080057A
:1009200003E045F4807500E000BF00BF20688069E7
:1009300020F07000216888610420216848602DB192
:10094000606A284360622046FFF7DAFEBDE8F09F48
:1009500070B504460CB9012070BD94F8200010B9A0
:10096000204600F0AFF82068006820F002002168FF
:10097000086000F075FC05460DE000F071FC401BBE
:100980000A2808D9606A40F400306062052084F8C3
:1009900020000120E0E72068406800F00200002805
:1009A000EBD12068006840F001002168086000F089
:1009B00057FC05460DE000F053FC401B0A2808D9FF
:1009C000606A40F400306062052084F82000012055
:1009D000C2E72068406800F001000028EBD0207ECC
:1009E000012806D12068006840F080002168086076
:1009F00005E02068006820F0800021680860607EC3
:100A0000012806D12068006840F040002168086095
:100A100005E02068006820F0400021680860A07EA2
:100A2000012806D12068006840F020002168086095
:100A300005E02068006820F0200021680860E07E62
:100A4000012806D12068006820F0100021680860A5
:100A500005E02068006840F0100021680860207FF1
:100A6000012806D12068006840F00800216808606D
:100A700005E02068006820F0080021680860607FB9
:100A8000012806D12068006840F004002168086051
:100A900005E02068006820F0040021680860D4E9BF
:100AA0000201084321690843616908436168491EDE
:100AB00008432168C86100206062012084F820009A
:100AC000002049E710B586B004460020029003904C
:100AD000049005902249206888423ED100BF2148F9
:100AE000C06940F000701F49C8610846C06900F045
:100AF0000070019000BF00BF00BF0846806940F051
:100B0000040088610846806900F00400019000BF7D
:100B100000BFC814029000200390049002A912485C
:100B200000F00AFA4FF48050029002200390032054
:100B3000059002A90C4800F0FFF90022114613208D
:100B400000F0D9FD132000F0C9FD00221146142049
:100B500000F0D1FD142000F0C1FD06B010BD000072
:100B600000640040001002400008014070477047D8
:100B700070477047704770477047704770477047BD
:100B800070477047014600200A68126822F00E0282
:100B90000B681A600A68126822F001020B681A607A
:100BA00091F8403001229A40CB6B5A60012281F8C3
:100BB000212000BF002281F8202000BF70470000E4
:100BC00070B50446002594F82100022803D00420C3
:100BD000A063012548E02068006820F00E0021682D
:100BE00008602068006820F00100216808601F4943
:100BF0002068884201D1012026E01C491431206878
:100C0000884201D110201FE018492831206888420D
:100C100001D1801518E015493C312068884201D186
:100C2000801411E0114950312068884202D14FF4FC
:100C3000803009E00D4964312068884202D14FF4C8
:100C4000801001E04FF080700849083948600120A9
:100C500084F8210000BF002084F8200000BF606BF2
:100C600010B12046616B8847284670BD08000240DD
:100C700070B50446E06B05682068066894F840107B
:100C8000042088402840002846D006F004000028B0
:100C900042D02068006800F0200028B92068006871
:100CA00020F004002168086057492068884201D17B
:100CB000042027E0544914312068884201D14020A3
:100CC00020E0514928312068884201D1001519E0FF
:100CD0004D493C312068884202D14FF4804011E0F8
:100CE000494950312068884202D14FF4802009E000
:100CF000454964312068884202D14FF4800001E008
:100D00004FF08060404908394860E06A00287AD096
:100D10002046E16A884776E094F840100220884037
:100D20002840A0B306F0020088B32068006800F0F5
:100D3000200040B92068006820F00A00216808609F
:100D4000012084F8210030492068884201D1022026
:100D500028E02D4914312068884201D1202021E06B
:100D6000294928312068884201D140151AE02649D6
:100D70003C312068884202D14FF4005012E02249F1
:100D800050312068884203D14FF400300AE017E068
:100D90001D4964312068884202D14FF4001001E0FF
:100DA0004FF0007018490839486000BF002084F8EF
:100DB000200000BFA06A30B32046A16A884722E025
:100DC00094F84010082088402840E0B106F0080060
:100DD000C8B12068006820F00E002168086094F80F
:100DE000401001208840E16B48600120A06384F836
:100DF000210000BF002084F8200000BF206B10B14C
:100E00002046216B884770BD080002400146002241
:100E100009B901207047164B0868C01A1423B0FBAB
:100E2000F3F08000086412480838C863022081F893
:100E300021000868026843F6F0708243D1E901039B
:100E40001843CB6818430B6918434B6918438B69E7
:100E50001843CB6918430243086802600020886386
:100E6000012081F82100002081F8200000BFD1E797
:100E7000080002402DE9F04104460D4616461F4683
:100E80004FF0000800BF94F82000012802D1022092
:100E9000BDE8F081012084F8200000BF94F8210013
:100EA00001282CD1022084F821000020A0632068B2
:100EB000006820F00100216808603B463246294660
:100EC0002046FFF7BFF9E06A30B12068006840F0C3
:100ED0000E00216808600BE02068006820F0040024
:100EE000216808602068006840F00A0021680860F6
:100EF0002068006840F001002168086006E000BF3B
:100F0000002084F8200000BF4FF002084046BFE7F1
:100F100070B5044600F0A4F906462546681C10B1D9
:100F200004480078054400BF00F09AF9801BA842ED
:100F3000FAD370BD080000202DE9F84703460024CD
:100F4000002000258446002700226EE14FF00108B2
:100F500008FA02F4D1F8008008EA0400A0427DD12A
:100F6000DFF8D0A2D1F80480A8EB0A09D0453AD026
:100F700014DCB8F1030F50D009DCB8F1000F31D008
:100F8000B8F1010F1CD0B8F1020F49D120E0B8F13F
:100F9000110F18D0B8F1120F42D11EE0B9F5881F19
:100FA00025D006DCB9F5803F20D0B9F5801F37D1B8
:100FB0001AE0B9F5001F18D0B9F5041F30D117E0B9
:100FC000D1F80CC02DE0D1F80C8008F1040C28E019
:100FD000D1F80C8008F1080C23E0D1F80C8008F15E
:100FE0000C0C1EE000BF00BF00BF00BF00BF00BF71
:100FF000D1F80880B8F1000F02D14FF0040C0BE0DB
:10100000D1F80880B8F1010F03D14FF0080C1C6132
:1010100002E04FF0080C5C6103E04FF0000C00E0D0
:1010200000BF00BFFF2801D8984601E003F1040883
:101030004646FF2802D84FEA820803E0A2F10808DA
:101040004FEA88084746D6F800804FF00F0909FAA2
:1010500007F928EA09080CFA07F900E088E048EAED
:101060000908C6F80080D1F8048008F08058B8F16B
:10107000805F7DD100BFDFF8C081D8F8188048F0CC
:101080000108DFF8B491C9F81880C846D8F818806C
:1010900008F00108CDF8008000BF00BF4FEAB93862
:1010A0004FEA920958F829504FEA82784FEA1879A6
:1010B0004FF00F0808FA09F825EA0805DFF87C81E7
:1010C000434502D14FF0000816E0DFF87481434534
:1010D00002D14FF001080FE0DFF86881434502D1EB
:1010E0004FF0020808E0DFF86081434502D14FF07D
:1010F000030801E04FF004084FEA82794FEA1979BA
:1011000008FA09F848EA0505DFF840814FEA920934
:1011100048F82950D1F8048008F48038B8F5803FA9
:101120000AD1DFF82C81D8F8008048EA0008DFF8FF
:101130002091C9F8008009E0DFF81481D8F8008018
:1011400028EA0008DFF80891C9F80080D1F8048087
:1011500008F40038B8F5003F10D1DFF8F48008F14A
:101160000408D8F8008048EA0008DFF8E49000E0BE
:101170005AE009F10409C9F800800DE0DFF8D080D9
:1011800008F10408D8F8008028EA0008DFF8C090C9
:1011900009F10409C9F80080D1F8048008F4801826
:1011A000B8F5801F0ED1DFF8A88008F10808D8F83C
:1011B000008048EA0008DFF8989009F10809C9F8AA
:1011C00000800DE0DFF8888008F10808D8F800807A
:1011D00028EA0008DFF8789009F10809C9F80080CA
:1011E000D1F8048008F40018B8F5001F0ED1DFF81C
:1011F000608008F10C08D8F8008048EA0008DFF8A1
:10120000509009F10C09C9F800800DE0DFF840802A
:1012100008F10C08D8F8008028EA0008DFF83090C0
:1012200009F10C09C9F80080521C102AFFF48EAE97
:10123000BDE8F887000011100010024000080140CE
:10124000000C014000100140001401400800014062
:10125000000401400AB1016101E00B040361704721
:101260000148006870470000000000207047704788
:101270002DE9F04106463068876930684469306876
:10128000456896F83E80B8F1100F02D0B8F1400FD3
:1012900058D104F0011030B105F4007018B1304697
:1012A00002F06BF913E04E48204030B105F40070B5
:1012B00018B1304602F037F809E04948801F204055
:1012C00028B105F4007010B1304602F033F84548FB
:1012D0003840D8B142487830204050B105F48060A1
:1012E00038B13F48001F204018B9304601F076FF62
:1012F00074E03B48001F204000286FD005F40070C8
:1013000000286BD0304601F019FF67E034483830D0
:10131000204050B105F4806038B13148001F2040B2
:1013200018B9304601F09BFE58E02D48001F2040C0
:10133000002853D005F4007000284FD0304601F04B
:101340000DFE4BE02648801F204030B105F40070B0
:1013500018B1304602F0B6F940E02148083020408C
:1013600030B105F4007018B1304602F0C7F935E02D
:101370001C483840C8B11A487830204050B105F4B4
:10138000806038B11648001F204018B9304602F07E
:1013900076F923E01248001F2040F8B105F40070F0
:1013A000E0B1304602F05DF918E00D4838302040D9
:1013B00050B105F4806038B10948001F204018B9C9
:1013C000304602F02AF909E00548001F204028B104
:1013D00005F4007010B1304602F010F9BDE8F0815C
:1013E00008000100040010007047000070B50446BA
:1013F000002600250CB9012070BD94F83D0028B9E5
:10140000002084F83C00204600F0B4F8242084F842
:101410003D002068006820F001002168086000F0AD
:1014200043FB05464C496068884206D84B488542D4
:1014300001D2012007E0002005E04948854201D2A1
:10144000012000E00020012800D1D5E74548B5FB88
:10145000F0F62068466040496068884201D8701CF8
:1014600007E04FF4967070434FF47A71B0FBF1F0DF
:10147000401C2168086238496068884214D8681E98
:1014800061684900B0FBF1F0401CC0F30B00042878
:1014900001D204203DE0681E61684900B0FBF1F014
:1014A000401CC0F30B0034E0A06838B9681E6168C6
:1014B00001EB4101B0FBF1F0401C0AE0681E6168DD
:1014C00001EBC10202EB0111B0FBF1F0401C40F452
:1014D0008040C0F30B0008B901201AE0A06848B9A9
:1014E000681E616801EB4101B0FBF1F0401CC0F3E4
:1014F0000B000CE0681E616801EBC10202EB0111F8
:10150000B0FBF1F0401CC0F30B0040F4804040F40D
:1015100000402168C861D4E90701084321680860D8
:10152000D4E90310084321688860D4E90501084321
:101530002168C8602068006840F0010021680860E8
:1015400000202064202084F83D000020206384F8DF
:101550003E0000BF50E70000A086010080841E000E
:1015600000093D0040420F007047704770477047C8
:101570007047000010B586B004460020029003902A
:10158000049005901949206888422DD100BF184861
:10159000806940F00800164988610846806900F0BB
:1015A0000800019000BF00BFC020029012200390ED
:1015B0000320059002A90F48FFF7BEFC00BF0C48AE
:1015C000C06940F400100A49C8610846C06900F4C7
:1015D0000010019000BF00BF002211461F2000F044
:1015E0008AF81F2000F07AF806B010BD00540040C1
:1015F00000100240000C014070477047034800682B
:101600000349097808440149086070470000002038
:101610000800002010B50848006840F01000064996
:101620000860032000F0A6F8002000F007F800F0A2
:101630002BF8002010BD00000020024070B50446C9
:101640000E4800784FF47A71B1FBF0F00C4909684C
:10165000B1FBF0F5284600F007FE08B1012070BD8F
:10166000102C07D200222146501E00F044F80548F5
:10167000046001E00120F2E70020F0E7080000200C
:101680000C0000200400002008B500BF114880694C
:1016900040F001000F4988610846806900F00100B0
:1016A000009000BF00BF00BF0846C06940F08050F6
:1016B000C8610846C06900F08050009000BF00BFBC
:1016C00000BF0549486820F0E06040F000704860C5
:1016D00000BF08BD001002400000014000BF00F044
:1016E0001F02012191404209920002F1E022C2F85A
:1016F000001100BF70472DE9F05F80460D46164689
:10170000002702F0F1FA074639462A46334601F02F
:101710000700C0F1070ABAF1040F02D94FF0040A1A
:1017200001E0C0F1070AD14600F1040ABAF1070F3F
:1017300002D24FF0000A01E0A0F1030AD4464FF0B4
:10174000010A0AFA09FAAAF1010A0AEA020A0AFADD
:101750000CFA4FF0010B0BFA0CFBABF1010B0BEA8F
:10176000030B4AEA0B042146404602F0C5FABDE8E5
:10177000F09F000000BF00F00702064B19684FF60B
:10178000FF031940044B0B4343EA0221014B19604C
:1017900000BF70470CED00E00000FA05F8B5044604
:1017A00000260025207800F0010000286BD00027DB
:1017B0004348C06900F0805070B900BF4048C0691C
:1017C00040F080503E49C8610846C06900F0805032
:1017D000009000BF00BF01273A48006800F4807005
:1017E000B0B93848006840F4807036490860FFF7A7
:1017F00037FD064606E0FFF733FD801B642801D95C
:101800000320F8BD2F48006800F480700028F2D053
:101810002B48006A00F440752DB3A08800F4407096
:10182000A84220D02648006A20F4407501202649AD
:101830000860002008602248056205F0010090B1B0
:10184000FFF70EFD064608E0FFF70AFD801B41F298
:101850008831884201D90320D3E71948006A00F093
:1018600002000028F0D01648006A20F44070616839
:10187000084313490862012F04D10846C06920F0CB
:101880008050C86100BF207800F00200022807D114
:101890000B48406820F44040A1680843084948606C
:1018A000207800F01000102807D10548406820F487
:1018B0008000E1680843024948600020A1E7000079
:1018C00000100240007000404004424270B50446DF
:1018D0000D4600266D48006800F00700A8420ED2B1
:1018E0006A48006820F007002843684908600846F5
:1018F000006800F00700A84201D0012070BD2078E8
:1019000000F0020002281DD1207800F00400042815
:1019100005D15F48406840F4E0605D494860207848
:1019200000F00800082805D15948406840F460508C
:10193000574948605648406820F0F000A1680843C5
:1019400053494860207800F0010000285DD06068AD
:10195000012806D14E48006800F4003090B90120FB
:10196000CCE76068022806D14948006800F00070A2
:1019700040B90120C2E74648006800F0020008B9FB
:101980000120BBE74248406820F00300616808433B
:101990003F494860FFF764FC06466068012810D1A3
:1019A00008E0FFF75DFC801B41F28831884201D9D5
:1019B0000320A3E73648406800F00C000428F0D16B
:1019C00023E06068022810D108E0FFF749FC801B83
:1019D00041F28831884201D903208FE72C484068C2
:1019E00000F00C000828F0D10FE008E0FFF738FC09
:1019F000801B41F28831884201D903207EE72448C8
:101A0000406800F00C000028F0D12048006800F089
:101A10000700A8420ED91D48006820F0070028439F
:101A20001A4908600846006800F00700A84201D083
:101A3000012063E7207800F00400042807D114484F
:101A4000406820F4E060E16808431149486020786C
:101A500000F00800082808D10D48406820F46050C4
:101A6000216940EAC1000A49486000F03DF8084990
:101A70004968C1F30311074A515CC8400649086030
:101A80000020FFF7DBFD002038E7000000200240C7
:101A900000100240244500080C00002001480068A6
:101AA000704700000C00002000B5FFF7F7FF044965
:101AB0004968C1F30221034A515CC84000BD0000DF
:101AC000001002403445000800B5FFF7E7FF044965
:101AD0004968C1F3C221034A515CC84000BD0000FF
:101AE0000010024034450008F0B585B00FF26C0CD0
:101AF0009CE8E01001A8A0E8E0101CA52D68009566
:101B000000210022002300240020194D696801F003
:101B10000C05F5B1042D02D0082D19D101E01548AE
:101B200019E001ADC1F38346AC5D01F4803555B1D8
:101B30000F4D6D68C5F340451DF805200D4D6543FB
:101B4000B5FBF2F302E00C4D04FB05F3184602E08E
:101B500000BF084800BF00BF05B0F0BD0203040588
:101B6000060708090A0B0C0D0E0F101001020000E9
:101B70000010024000127A0000093D00F8B504464A
:101B80000025207800F00100002878D0F84840684F
:101B900000F00C0004280CD0F548406800F00C0060
:101BA000082811D1F248406800F48030B0F5803F39
:101BB0000AD1EF48006800F4003000285FD0606868
:101BC00000285CD10120F8BD00BF6068B0F5803FFF
:101BD00006D1E748006840F48030E549086028E015
:101BE000606858B9E248006820F48030E049086035
:101BF0000846006820F4802008601AE06068B0F5AC
:101C0000A02F0BD1DA48006840F48020D849086042
:101C10000846006840F4803008600AE0D448006854
:101C200020F48030D24908600846006820F4802003
:101C3000086000BF606888B1FFF712FB054606E048
:101C4000FFF70EFB401B642801D90320BBE7C848FF
:101C5000006800F400300028F2D010E0FFF700FB2D
:101C6000054606E0FFF7FCFA401B642801D9032073
:101C7000A9E7BF48006800F400300028F2D12078BE
:101C800000F00200022857D1B948406800F00C006B
:101C900050B1B748406800F00C00082818D1B4488B
:101CA000406800F4803098B9B148006800F0020044
:101CB00020B12069012801D0012084E7AC480068E8
:101CC00020F0F800616940EAC100A949086033E0EA
:101CD0002069E8B10120A7490860FFF7C1FA05466D
:101CE00006E0FFF7BDFA401B022801D903206AE78E
:101CF0009F48006800F002000028F2D09C4800686D
:101D000020F0F800616940EAC1009949086013E0D9
:101D1000002098490860FFF7A3FA054606E0FFF7A0
:101D20009FFA401B022801D903204CE79048006825
:101D300000F002000028F2D1207800F00800082806
:101D40002DD1A069B8B101208B490860FFF788FA4E
:101D5000054606E0FFF784FA401B022801D903205C
:101D600031E78348406A00F002000028F2D00120E9
:101D700001F0D8FF13E000207F490860FFF770FAF8
:101D8000054606E0FFF76CFA401B022801D9032044
:101D900019E77748406A00F002000028F2D1207865
:101DA00000F00400042873D100267148C06900F0D7
:101DB000805070B900BF6E48C06940F080506C49D7
:101DC000C8610846C06900F08050009000BF00BFA5
:101DD00001266A48006800F48070B0B9674800685E
:101DE00040F4807065490860FFF73AFA054606E05E
:101DF000FFF736FA401B642801D90320E3E65F4869
:101E0000006800F480700028F2D000BFE06801286C
:101E100006D15748006A40F001005549086227E0A2
:101E2000E06858B95248006A20F001005049086241
:101E30000846006A20F00400086219E0E0680528FE
:101E40000BD14B48006A40F004004949086208463B
:101E5000006A40F0010008620AE04548006A20F08C
:101E60000100434908620846006A20F00400086245
:101E700000BFE068A0B1FFF7F3F9054609E0FFF7FE
:101E8000EFF9401B41F28831884202D903209AE6DB
:101E900022E03748006A00F002000028EFD012E08C
:101EA000FFF7DEF9054608E0FFF7DAF9401B41F2DB
:101EB0008831884201D9032085E62D48006A00F068
:101EC00002000028F0D1012E05D12948C06920F078
:101ED00080502749C86100BFE069C8B32448406802
:101EE00000F00C00082860D0E069022848D10020EA
:101EF00020490866FFF7B4F9054606E0FFF7B0F998
:101F0000401B022801D903205DE61948006800F053
:101F100000700028F2D1206AB0F5803F07D1144844
:101F2000406820F40030A168084311494860D4E9B2
:101F3000080108430E49496821F4741108430C490B
:101F4000486001200B490866FFF78AF9054607E05B
:101F50002DE0FFF785F9401B022801D9032032E666
:101F60000348006800F000700028F2D01FE0000075
:101F700000100240000042428004424200700040D3
:101F800000200C490866FFF76BF9054606E0FFF7ED
:101F900067F9401B022801D9032014E606480068AF
:101FA00000F000700028F2D101E001200BE60020D3
:101FB00009E60000000042420010024070470000A5
:101FC000F8B50446206846682068856805F040003A
:101FD00048B905F0010030B106F0400018B12046C4
:101FE000216C8847F8BD05F0020030B106F0800092
:101FF00018B12046616C8847F4E705F060000028BE
:1020000066D006F02000002862D005F04000F0B154
:1020100094F8510003280ED0606D40F00400606514
:1020200000BF002000902068C06800902068806891
:10203000009000BF0BE000BF002000902068C06847
:10204000009020688068009000BF00BFCAE705F0DC
:10205000200088B1606D40F00100606500BF002085
:1020600000902068806800902068006820F04000A0
:102070002168086000BF00BF606D20B32068406821
:1020800020F0E00021684860012084F8510006F04B
:10209000020010B906F00100B0B12068406820F0DD
:1020A000030021684860E06C28B10A48E16C48638D
:1020B000E06CFEF785FDA06C28B10648A16C486372
:1020C000A06CFEF77DFD02E02046FFF777FF89E771
:1020D00000BF87E75D3D000810B504460CB901203C
:1020E00010BD0021A16294F8510010B9204600F003
:1020F00037F8022084F851002068006820F0400082
:1021000021680860D4E901010843E16808432169B6
:10211000084361690843218B01F400710843E169B8
:102120000843216A0843A16A084321680860042122
:10213000A06901EA1040616A08432168486021688B
:10214000E06A08612068C06920F400602168C86105
:1021500000206065012084F851000020C0E70000E5
:1021600010B586B0044600200290039004900590BC
:1021700037492068884268D100BF3648806940F4FA
:102180008050344988610846806900F4805001908D
:1021900000BF00BF00BF0846806940F004008861AE
:1021A0000846806900F00400019000BF00BFB02025
:1021B0000290022003900320059002A92648FEF712
:1021C000BBFE4020029000200390049002A9224808
:1021D000FEF7B2FE21482249086000204860002135
:1021E0001F4881608021C1600021016141618161DE
:1021F000C161FEF70BFE08B1FEF73BF800BF1848BF
:10220000E064446200BF154814301649086010208D
:1022100048600021134881608021C1600021016174
:1022200041618161C161FEF7F1FD08B1FEF721F85E
:1022300000BF0C48A064446200BF00221146232066
:10224000FFF759FA2320FFF749FA06B010BD000046
:102250000030014000100240000801401C00024014
:1022600068010020AC01002070B504462546681EB8
:10227000B0F1807F01D301200FE0681E4FF0E02114
:1022800048610F214FF0FF3001F036FD00204FF084
:10229000E021886107200861002070BD7047704709
:1022A000024600BF92F83C00012801D1022070478D
:1022B000012082F83C0000BF022082F83D00106837
:1022C000406820F0700013685860106840680B6820
:1022D0001843136858601068806820F08000136805
:1022E0009860106880684B681843136898600120F4
:1022F00082F83D0000BF002082F83C0000BF00BF14
:10230000D5E710B504460CB9012010BD94F83D0086
:1023100028B9002084F83C00204600F00DF8022087
:1023200084F83D00211D206801F0B6FD012084F8ED
:102330003D000020E9E7000038B504463549206833
:10234000884216D100BF3448806940F400603249A9
:1023500088610846806900F40060009000BF00BFFB
:10236000002211461920FFF7C6F91920FFF7B6F928
:102370004FE02068B0F1804F16D100BF2648C069F9
:1023800040F001002449C8610846C06900F001001E
:10239000009000BF00BF002211461C20FFF7ABF9E0
:1023A0001C20FFF79BF934E01C492068884216D1B5
:1023B00000BF1948C06940F002001749C8610846CB
:1023C000C06900F00200009000BF00BF002211466B
:1023D0001D20FFF790F91D20FFF780F919E0104943
:1023E0002068884215D100BF0B48C06940F0040046
:1023F0000949C8610846C06900F00400009000BFA8
:1024000000BF002211461E20FFF775F91E20FFF7BE
:1024100065F938BD002C0140001002400004004066
:10242000000800402DE9F04104460D46002600BF9B
:1024300094F83C00012802D10220BDE8F08101207F
:1024400084F83C0000BF022084F83D0020688668C4
:1024500026F0770626F47F46206886602868502894
:102460003BD00CDC202860D004DC002853D010289E
:1024700065D155E030285DD0402860D141E060282A
:1024800035D070280DD0B0F5805F03D0B0F5005F77
:1024900055D115E02068806820F007002168886029
:1024A0004EE0D5E902136A68206801F02FFD20682C
:1024B000866826F0770646F07706206886603FE05B
:1024C000D5E902136A68206801F020FD2068806861
:1024D00040F480402168886032E0EA6869682068DA
:1024E00001F02AFD5021206801F01CFD28E0EA6877
:1024F0006968206801F035FD6021206801F012FD57
:102500001EE0EA686968206801F016FD4021206835
:1025100001F008FD14E00021206801F003FD0FE048
:102520001021206801F0FEFC0AE02021206801F063
:10253000F9FC05E03021206801F0F4FC00E000BF68
:1025400000BF012084F83D0000BF002084F83C005B
:1025500000BF00BF71E7704710B5044620680069EE
:10256000C0F34000D8B12068C068C0F34000B0B1EB
:102570006FF00200216808610120207720688069DF
:1025800000F0030018B12046FFF7E5FF05E0204604
:1025900000F0ADF8204600F0ABF80020207720686E
:1025A0000069C0F38000D8B12068C068C0F3800023
:1025B000B0B16FF004002168086102202077206824
:1025C000806900F4407018B12046FFF7C4FF05E0B1
:1025D000204600F08CF8204600F08AF80020207792
:1025E00020680069C0F3C000D8B12068C068C0F39B
:1025F000C000B0B16FF008002168086104202077A6
:102600002068C06900F0030018B12046FFF7A3FF5F
:1026100005E0204600F06BF8204600F069F8002045
:10262000207720680069C0F30010D8B12068C06826
:10263000C0F30010B0B16FF01000216808610820ED
:1026400020772068C06900F4407018B12046FFF779
:1026500082FF05E0204600F04AF8204600F048F8E6
:10266000002020772068006900F0010058B1206840
:10267000C06800F0010030B16FF00100216808610E
:10268000204600F036F820680069C0F3C01058B149
:102690002068C068C0F3C01030B16FF080002168BE
:1026A00008612046FFF7FAFD20680069C0F380103A
:1026B00058B12068C068C0F3801030B16FF040009E
:1026C00021680861204600F015F820680069C0F311
:1026D000401058B12068C068C0F3401030B16FF0AE
:1026E0002000216808612046FFF7D9FD10BD704722
:1026F00070477047704770B50446002520684069F0
:10270000C0F3C01594F8390021280ED16DB12068AE
:10271000406920F0800021684861206B10B1206B77
:10272000FEF730FA204601F0D0FC20684069C0F383
:10273000801594F83A0022280ED16DB120684069C6
:1027400020F0400021684861606B10B1606BFEF7BB
:1027500019FA204601F099FC002070BD7047000076
:102760002DE9F0470446206805682068C66820689F
:1027700047694FF00008C14605F00F08B8F1000F97
:102780000AD105F0200038B106F0200020B1204623
:1027900001F0A5FCBDE8F087B8F1000F6DD007F09F
:1027A000010018B906F49070002866D005F0010009
:1027B00030B106F4807018B1E06B40F00100E063C6
:1027C00005F0040030B107F0010018B1E06B40F0F3
:1027D0000200E06305F0020030B107F0010018B11B
:1027E000E06B40F00400E06305F0080030B107F052
:1027F000010018B1E06B40F00800E063E06B68B3E3
:1028000005F0200028B106F0200010B1204601F0AC
:1028100066FC20684069C0F38019E06B00F0080096
:1028200010B9B9F1000F22D0204601F02EFC20682B
:10283000406900F04000B0B12068406920F04000DD
:1028400021684861606B50B11748616B4863606BE9
:10285000FEF7B6F910B1606B416B88470CE020467B
:10286000FFF77CFF08E02046FFF778FF04E02046F2
:10287000FFF774FF0020E0638CE705F0800030B1C3
:1028800006F0800018B1204601F060FD82E705F0F7
:10289000400030B106F0400018B1204601F005FCC0
:1028A00078E700BF76E700008F3F000810B50446C8
:1028B0000CB9012010BDA06900B100E000BF94F880
:1028C000390028B9002084F83800204600F028F8A4
:1028D000242084F839002068C06820F40050216862
:1028E000C860204601F04EFC2068006920F490404A
:1028F000216808612068406920F02A002168486149
:102900002068C06840F400502168C8600020E0637F
:10291000202084F8390084F83A000020CAE700003B
:1029200010B586B0044600200290039004900590F4
:102930009849206888427DD100BF9748806940F45B
:102940008040954988610846806900F48040019084
:1029500000BF00BF00BF0846806940F004008861E6
:102960000846806900F00400019000BF00BF4815D0
:102970000290022003900320059002A98748FEF7E9
:10298000DBFA4FF48060029000200390049002A9CB
:102990008248FEF7D1FA82488249086000204860E8
:1029A0000021804881608021C16000210161416176
:1029B0008161C161FEF72AFA08B1FDF75AFC00BF38
:1029C00078486063446200BF7548143876490860EF
:1029D000102048600021744881608021C16000217E
:1029E000016141618161C161FEF710FA08B1FDF733
:1029F00040FC00BF6C482063446200BF00221146C7
:102A00002520FEF778FE2520FEF768FE00BF002097
:102A1000019066480068006801906448006840685A
:102A2000019000BF00BF61480068C06840F010001E
:102A30005E4900E002E00968C860A9E05C492068DE
:102A400088426AD100BF5448C06940F400305249FE
:102A5000C8610846C06900F40030019000BF00BFA3
:102A600000BF0846806940F004008861084680691C
:102A700000F00400019000BF00BF0420029002207B
:102A800003900320059002A94448FEF755FA082058
:102A9000029000200390049002A94048FEF74CFAEF
:102AA0003F481430434908600020486000214148F5
:102AB00081608021C1600021016141618161C1614A
:102AC000FEF7A4F908B1FDF7D4FB00BF39486063F5
:102AD000446200BF324828303749086010204860FF
:102AE0000021354881608021C16000210161416180
:102AF0008161C161FEF78AF908B1FDF7BAFB00BF39
:102B00002D482063446200BF002211462620FEF7B4
:102B1000F2FD2620FEF7E2FD3AE0284920688842CF
:102B200036D100BF1C48C06940F480201A49C861F2
:102B30000846C06900F48020019000BF00BF00BFBC
:102B40000846806940F0080088610846806900F006
:102B50000800019000BF00BF0815029002200390FA
:102B60000320059002A91648FEF7E6F94FF400602D
:102B7000029000200390049002A91148FEF7DCF9AE
:102B8000002211462720FEF7B6FD2720FEF7A6FDFE
:102B900006B010BD0038014000100240000801409E
:102BA00058000240B0030020F4030020F00200208F
:102BB00000440040380400207C040020004800400D
:102BC000000C014077B581B00446154694F83A00F0
:102BD000202850D1029800B115B9012004B070BD71
:102BE00000BF94F83800012801D10220F6E7012047
:102BF00084F8380000BF0298A062A5850020E06339
:102C0000222084F83A001D48616B88621C48616B81
:102C1000C8621C48616B08630020616B486302AEA8
:102C200032682368191D2B46606BFEF723F900BF3D
:102C300000200090206800680090206840680090A4
:102C400000BF00BF00BF002084F8380000BF20682C
:102C5000C06840F480702168C8602068406940F016
:102C60000100216848612068406940F04000216807
:102C700048610020B2E70220B0E70000F33F0008FF
:102C800039400008A33F0008024A0168914200D081
:102C900000BF70470038014070470000F7B5044698
:102CA000154694F8390020283DD1019800B10DB99E
:102CB0000120FEBD00BF94F83800012801D1022098
:102CC000F7E7012084F8380000BF01982062A5844E
:102CD000E5840020E063212084F839001348216B4B
:102CE00088621348216BC8621248216B0863002078
:102CF000216B486301AE23681A1D31682B46206B97
:102D0000FEF7B8F86FF040002168086000BF0020AF
:102D100084F8380000BF2068406940F080002168D6
:102D200048610020C5E70220C3E7000047400008D3
:102D30007D400008A33F0008094A0168914205D17F
:102D400008490968491C074A116008E0064A0168F9
:102D5000914204D103490968491E024A1160704733
:102D6000003801401C00002000440040704700BFB4
:102D7000FEE7000010B50248FEF77AFA10BD000029
:102D8000BC00002070B505466C6A2068006820F41D
:102D900080602168086000206085616B4863A16BDA
:102DA000486394F83D00602810D1202084F83D004D
:102DB000002084F83E0020642068006820F00100B4
:102DC000216808602046FEF751FA0EE0202084F8C2
:102DD0003D00002084F83E002068006820F00100DB
:102DE000216808602046FEF7FFFA70BD70B5044602
:102DF00094F83D50292D01D02A2D05D100202063C3
:102E0000282084F83D0011E094F83D00602809D0A6
:102E10002068406800F40060B0F5006F02D0202008
:102E200084F83D000020206384F83E00206800689C
:102E300020F40060216808602068406800F40060A9
:102E4000B0F5006F40D12068406820F40060216830
:102E50004860606B90F82100012814D03D48616BF8
:102E60004863606BFDF7ACFE00285BD0206800680B
:102E700020F0010021680860202084F83D00606B8C
:102E8000416B88474EE03348A16B4863A06BFDF768
:102E900097FE002846D020684069C0F3801030B10A
:102EA00020680069C1B2626A501C606211702068BB
:102EB000006820F0010021680860202084F83D00AF
:102EC000A06B416B88472DE094F83D0060281AD133
:102ED000202084F83D000020206420684069C0F371
:102EE000801030B120680069C1B2626A501C606213
:102EF00011702068006820F00100216808602046F9
:102F0000FEF7B4F90EE020684069C0F3801030B1DC
:102F100020680069C1B2626A501C6062117020466C
:102F2000FEF762FA94F83D00282811D1206C00F0D9
:102F3000040004280CD10848E0620020206320200F
:102F400084F83D00002084F83E002046FEF70CFB8C
:102F500070BD0000852D00080000FFFF70B504461D
:102F6000E56A608D032817D1042D04D0082D02D006
:102F700015F5803F05D12068006820F48060216845
:102F8000086020680069C1B2626A501C60621170FA
:102F9000608D401E608560E0608D022853D1042D55
:102FA0001AD0082D18D015F5803F15D0022D06D067
:102FB0002068006820F480602168086005E02068CF
:102FC000006840F48060216808602068406820F450
:102FD0004070216848600BE02068406820F4407031
:102FE000216848602068006840F40070216808602B
:102FF00020680069C1B2626A501C60621170608D05
:10300000401E608520680069C1B2626A501C60621F
:103010001170608D401E6085202084F83D000020E6
:10302000206394F83E00402806D1002084F83E003A
:103030002046FEF79CFA10E0002084F83E0020466F
:10304000FEF793FA09E020680069C1B2626A501C79
:1030500060621170608D401E6085002070BD70B58B
:10306000044694F83D00222866D10025658D032D85
:103070000AD920680069C1B2626A501C606211708E
:10308000608D401E608556E0022D01D0032D1CD1BD
:10309000E06A02280CD02068006820F48060216873
:1030A00008602068006840F400602168086005E05E
:1030B0002068006840F480602168086020684068EB
:1030C00020F480602168486035E0E06A022806D07C
:1030D0002068006820F480602168086005E02068AE
:1030E000006840F48060216808602068406820F42F
:1030F000E0602168486020680069C1B2626A501CC3
:1031000060621170608D401E6085202084F83D0053
:103110000020206394F83E00402806D1002084F867
:103120003E002046FEF723FA05E0002084F83E002A
:103130002046FEF71AFA00BF002070BD70B50446A5
:10314000E56A94F83D00212846D1608D48B1616A56
:10315000481C6062087821680861608D401E6085A7
:103160003AE0042D16D0082D14D015F5803F11D06B
:103170002068406820F4E0602168486011202063E6
:10318000002084F83E00202084F83D002046FEF711
:10319000EDF921E02068406820F4E0602168486093
:1031A0002068006840F400702168086000202063F7
:1031B000202084F83D0094F83E00402806D10020ED
:1031C00084F83E002046FEF7D3F905E0002084F89D
:1031D0003E002046FEF7CAF9002070BD2DE9F041FF
:1031E000044694F83D5094F83E70E66A208DB0BBDA
:1031F000212D3CD1042E16D0082E14D016F5803F78
:1032000011D02068406820F4E060216848601120F7
:103210002063002084F83E00202084F83D002046F2
:10322000FEF7A4F97CE02068406820F4E0602168A3
:1032300048602068006840F4007021680860002041
:103240002063202084F83D0094F83E00402807D1F8
:10325000002084F83E002046FEF78AF960E006E090
:10326000002084F83E002046FEF780F958E0212D2A
:1032700003D0402F54D1222D52D1608D30B9206817
:10328000406820F480602168486049E094F83E007E
:1032900040283CD1206D98B9E06C012807D1A06C82
:1032A000C0B221680861206D801C206538E0A06CE8
:1032B000C0F3072021680861206D401C20652FE0C5
:1032C000206D012807D1A06CC0B221680861206D73
:1032D000401C206524E0206D022821D194F83D0097
:1032E000222806D12068006840F4807021680860B8
:1032F00016E094F83D00212812D1616A481C6062F2
:10330000087821680861608D401E608508E0616A68
:10331000481C6062087821680861608D401E6085E5
:103320000020BDE8F0810146486CC0B20A68106117
:103330000020704738B5014691F83E30CA6A0C6BE0
:1033400091F83D00222873D1086D60B9402B0AD155
:1033500000BF0020009008684069009008688069FC
:10336000009000BF07E1086DC0B90869B0F5404F93
:1033700014D100BF002000900868406900900868E0
:103380008069009000BF00BF0868006840F480704A
:103390000D682860086D401C0865ECE0488D88B910
:1033A00000BF0020009008684069009008688069AC
:1033B000009000BF00BF0868006840F400700D680E
:1033C0002860CAE0488D01286CD112F5803F30D1C9
:1033D0000868006820F480600D682860086840680C
:1033E00000F40060B0F5006F10D10868006820F4A8
:1033F00080600D68286000BF002000900868406968
:10340000009008688069009000BFA6E000BF00201F
:10341000009008684069009008688069009000BFCB
:1034200000BF0868006840F400700D68286094E0F0
:1034300096E0042A1ED0082A1CD0122C1AD0C86A82
:10344000022806D00868006820F480600D682860B3
:1034500005E00868006840F480600D68286000BFDF
:10346000002000900868406900900868806900901A
:1034700000BF72E00868006820F480600D68286072
:1034800000BF0020009008684069009008688069CB
:10349000009000BF00BF0868006840F400700D682D
:1034A00028605AE0488D022839D1C86A022817D00E
:1034B0000868006840F400600D68286000BF0020C4
:1034C000009008684069009008688069009000BF1B
:1034D00000BF0868006820F480600D68286010E074
:1034E0000868006840F480600D68286000BF002014
:1034F000009008684069009008688069009000BFEB
:1035000000BF0868406800F40060B0F5006F24D187
:103510000868406840F480500D6868601DE00868E5
:10352000006840F480600D6828600868406800F416
:103530000060B0F5006F05D10868406840F4805025
:103540000D68686000BF0020009008684069009026
:1035500008688069009000BF00BF002008650AE08D
:1035600000BF0020009008684069009008688069EA
:10357000009000BF00BF002038BD014691F83E001A
:1035800040280ED1086D28B9486C00F0FE000A688A
:10359000106131E0486CC0B240F001000A6810616F
:1035A0002AE00869B0F5804F10D191F83D0021283C
:1035B00005D1486C00F0FE000A6810611CE0486C00
:1035C000C0B240F001000A68106115E0086D40B912
:1035D000486C00F44070F02242EAE0100A68106182
:1035E0000AE0086D012807D1486C00F44070F12210
:1035F00042EAE0100A681061002070470146488DD9
:1036000048B108680069C2B24B6A581C48621A7017
:10361000488D401E48850020704770B5044694F8D8
:103620003D50608DD8B120680069C1B2626A501CFB
:1036300060621170608D401E6085608D78B92A2DA2
:103640000DD12068406820F4806021684860222005
:103650002063282084F83D002046FDF7CDFF0020A0
:1036600070BD0146488D40B14A6A501C48621078CE
:103670000A681061488D401E48850020704770B56B
:10368000044694F83D50608DD0B1616A481C606278
:10369000087821680861608D401E6085608D78B96A
:1036A000292D0DD12068406820F480602168486091
:1036B00021202063282084F83D002046FDF79DFF4F
:1036C000002070BD70B50446002500262068806982
:1036D000C0F3800000B9012520688069C0F3C010E4
:1036E00010B9A08986B201E0208B86B23246294605
:1036F0002046FDF7BCFD002070BD000038B5044633
:1037000094F83D502068406820F4E06021684860EB
:1037100000BF002000902068406900902068006889
:1037200040F001002168086000BF00BF2068006809
:1037300020F48060216808602068406800F4006020
:10374000B0F5006F10D194F83D00222803D094F812
:103750003D002A2804D1A06B00684068608503E022
:10376000606B006840686085608D08B320684069C0
:10377000C0F3800048B120680069C1B2626A501C81
:1037800060621170608D401E608520684069C0F3E2
:10379000801048B120680069C1B2626A501C606242
:1037A0001170608D401E6085206C40F00400206424
:1037B000206C18B12046FFF719FB23E0282D03D019
:1037C0002A2D01D0292D0DD10F48E0620020206361
:1037D000202084F83D00002084F83E002046FDF7BC
:1037E000C3FE0FE0206B222801D0222D0AD1002039
:1037F0002063202084F83D00002084F83E0020460D
:10380000FDF7FAFE002038BD0000FFFF0EB50020D6
:10381000009001900290124812490860002111485E
:103820008160C16041614FF46021C16100200D4998
:10383000486001210B480161FCF760FE08B1FCF70C
:1038400018FD092000900120019000200290694697
:103850000448FCF711FD08B1FCF70BFD0EBD00009C
:10386000002401402000002010B50B480B490860DF
:1038700010204860002109488160C16001614161F8
:10388000017641768176C17601774177FDF760F860
:1038900008B1FCF7EEFC10BD00640040940000206D
:1038A00008B500BF2248406940F001002049486146
:1038B0000846406900F00100009000BF00BF0022F0
:1038C00011460B20FDF717FF0B20FDF707FF002225
:1038D00011460C20FDF70FFF0C20FDF7FFFE002224
:1038E00011460D20FDF707FF0D20FDF7F7FE002222
:1038F00011460E20FDF7FFFE0E20FDF7EFFE002221
:1039000011460F20FDF7F7FE0F20FDF7E7FE00221E
:1039100011461020FDF7EFFE1020FDF7DFFE00221C
:1039200011461120FDF7E7FE1120FDF7D7FE08BD77
:103930000010024000B585B0002001900290039075
:10394000049000BF3148806940F010002F49886121
:103950000846806900F01000009000BF00BF00BF63
:103960000846806940F0200088610846806900F0C0
:103970002000009000BF00BF00BF0846806940F0F3
:10398000040088610846806900F00400009000BFD0
:1039900000BF00BF0846806940F008008861084603
:1039A000806900F00800009000BF00BF00224FF4C3
:1039B00060411748FDF74EFC002204211548FDF731
:1039C00049FC4FF4604001900120029000200390D8
:1039D0000220049001A90E48FDF7AEFA03200190E1
:1039E00000200290039001A90B48FDF7A5FA0420DE
:1039F000019001200290002003900220049001A970
:103A00000448FDF799FA05B000BD0000001002401F
:103A100000100140000C01400008014010B50B48A7
:103A20000B4908600B484860002109488160C1606B
:103A30004FF480410161002141618161C1610162F6
:103A4000FDF7D4FC08B1FCF714FC10BD0054004095
:103A5000BC000020A086010010B50E480E49086089
:103A60004FF48270486000210B488160C1600161A1
:103A700041614FF4802181611821C16100210162FF
:103A8000416281620A21C162FEF726FB08B1FCF7A0
:103A9000F0FB10BD003001401001002000B587B0E0
:103AA0000020039004900590069001900290134826
:103AB0001349086000204860002111488160C160FE
:103AC000016141618161FEF71CFC08B1FCF7D1FB8B
:103AD0004FF48050039003A90948FEF7A3FC08B1F6
:103AE000FCF7C7FB00200190029001A90448FEF7F3
:103AF000D7FB08B1FCF7BDFB07B000BD002C0140AF
:103B0000F001002000B587B00020039004900590DC
:103B10000690019002904FF080401249086000200A
:103B2000486000210F488160C16001618161FEF73A
:103B3000E8FB08B1FCF79DFB4FF48050039003A90C
:103B40000848FEF76FFC08B1FCF793FB00200190DA
:103B5000029001A90348FEF7A3FB08B1FCF789FB1B
:103B600007B000BD3002002000B587B000200390F0
:103B70000490059006900190029013481349086044
:103B800000204860002111488160C16001618161AD
:103B9000FEF7B7FB08B1FCF76CFB4FF480500390C5
:103BA00003A90A48FEF73EFC08B1FCF762FB0020BF
:103BB0000190029001A90548FEF772FB08B1FCF7DD
:103BC00058FB07B000BD0000000400407002002058
:103BD00000B587B0002003900490059006900190F6
:103BE00002901348134908600020486000211148E2
:103BF0008160C16001618161FEF783FB08B1FCF760
:103C000038FB4FF48050039003A90A48FEF70AFCE2
:103C100008B1FCF72EFB00200190029001A9054895
:103C2000FEF73EFB08B1FCF724FB07B000BD000027
:103C300000080040B002002010B50B480B49086096
:103C40004FF4E1304860002108488160C1600161A3
:103C50000C21416100218161C161FEF727FE08B19D
:103C6000FCF707FB10BD000000380140F002002007
:103C700010B50B480B4908604FF4E1304860002153
:103C800008488160C16001610C21416100218161AE
:103C9000C161FEF70BFE08B1FCF7EBFA10BD0000A6
:103CA000004400403003002010B50B480B49086069
:103CB0004FF4E1304860002108488160C160016133
:103CC0000C21416100218161C161FEF7EFFD08B166
:103CD000FCF7CFFA10BD0000004800407003002040
:103CE00000BFFEE77047000002480068C0F30220F2
:103CF000704700000CED00E010B5002807DA0A0755
:103D0000140E054A00F00F031B1FD45403E00A07EA
:103D1000130E024A135410BD18ED00E000E400E059
:103D20007047000008B508490968C9084FF47A725D
:103D3000B1FBF2F14143009100BF00BF00994A1E60
:103D400000920029F9D108BD0C00002010B50248EE
:103D5000FEF736F910BD00001001002070B50546D1
:103D60006C6A0020E087E0862046FEF727F970BDE8
:103D7000704710B5FDF742FC10BD00B593B0282187
:103D800009A8FCF7D6F9142104A8FCF7D2F9002001
:103D900000900190029003900120099000040A9085
:103DA00000200B9001200D9002201090C103119172
:103DB0004FF4E011129109A8FDF7E0FE08B1FCF7FD
:103DC00058FA0F20049002200590002006904FF42E
:103DD0008060079000200890022104A8FDF776FD7E
:103DE00008B1FCF746FA0220009080030290684672
:103DF000FDF7D4FC08B1FCF73CFA13B000BD00009D
:103E00001148006840F001000F490860084640680A
:103E10000E4908400C494860084600680C490840B3
:103E2000094908600846006820F4802008600846B8
:103E3000406820F4FE0048604FF41F008860C8030B
:103E40000449086070470000001002400000FFF8BD
:103E5000FFFFF6FE08ED00E010B50248FEF77CFB20
:103E600010BD0000F001002010B50248FEF774FB01
:103E700010BD00003002002010B50248FEF76CFBB8
:103E800010BD00007002002010B50248FEF764FB70
:103E900010BD0000B002002000220268184B9842BA
:103EA00008D0B0F1804F05D0164B984202D0164B87
:103EB000984203D122F070024B681A43104B98428B
:103EC00008D0B0F1804F05D00E4B984202D00E4B77
:103ED000984203D122F44072CB681A4322F0800248
:103EE0004B691A4302608B68C3620B688362044BA0
:103EF000984201D10B6903630123436170470000BD
:103F0000002C0140000400400008004030B50C4681
:103F10000021816821F47F4142EA0325254329439A
:103F2000816030BD0A460021816821F0700142F0B5
:103F3000070319438160704730B50B4614460021D2
:103F40000022026A056A25F001050562816921F0F7
:103F5000F00141EA041122F00A021A43816102626F
:103F600030BD30B50B46144600210022056A25F00D
:103F7000100505628169026A21F4704141EA043149
:103F800022F0A00242EA03128161026230BD70B5E4
:103F900005466C6A0020E085E0842046FEF7DEFBE3
:103FA00070BD70B506460025746A20684069C0F38C
:103FB000C01594F83900212805D125B10020E084EE
:103FC000204600F082F820684069C0F3801594F81C
:103FD0003A00222805D125B10020E085204600F0D6
:103FE00054F8E06B40F01000E0632046FEF7B6FBAB
:103FF00070BD70B505466C6A2868006800F0200046
:10400000B0B90020E0852068C06820F48070216885
:10401000C8602068406920F001002168486120687C
:10402000406920F0400021684861202084F83A006F
:104030002046FEF729FE70BD70B50446656A284625
:10404000FEF72AFE70BD70B505466C6A28680068E8
:1040500000F0200070B90020E0842068406920F062
:104060008000216848612068C06840F040002168F5
:10407000C86002E02046FEF75FFE70BD70B50446E2
:10408000656A2846FEF772FE70BD0168C96821F4B2
:1040900090710268D1600168496921F001010268EC
:1040A0005161202180F83A10704710B5044620680D
:1040B000C06820F040002168C860202084F83900E2
:1040C0002046FEF739FE002010BD0168C96821F0C6
:1040D000C0010268D160202180F83910704770B5A6
:1040E000044694F83A0022284AD1A068B0F5805FCF
:1040F00013D1A56A206940B920684068C0F3080060
:104100002880A06A801CA06219E020684068C0B2C4
:104110002880A06A401CA06211E0206938B920689C
:104120004068C1B2A26A501CA062117007E020680A
:10413000406800F07F01A26A501CA0621170E08DFF
:10414000401E80B2E085C8B92068C06820F0200019
:104150002168C8602068C06820F480702168C86049
:104160002068406920F0010021684861202084F81F
:104170003A002046FEF788FD002070BD0020FCE7D5
:104180000220FAE72DE9F041044600252068006985
:1041900020F44050E1680843216808612169A06863
:1041A00008436169084305432068C06841F20C6117
:1041B000884328432168C8602068406920F4407023
:1041C000A1690843216848615F49206888425CD141
:1041D000FDF77AFC00EBC00101EB0010616889007B
:1041E000B0FBF1F6FDF770FC00EBC00101EB001035
:1041F00061688900B0FBF1F06421B0FBF1F000EBE5
:10420000C00101EB0010A6EB8000322101EB001091
:104210006421B0FBF1F000F0F006FDF755FC00EB77
:10422000C00101EB001061688900B0FBF1F064216E
:10423000B0FBF1F006EB0016FDF746FC00EBC00109
:1042400001EB001061688900B0FBF1F7FDF73CFC61
:1042500000EBC00101EB001061688900B0FBF1F0D8
:104260006421B0FBF1F000EBC00101EB0010A7EB03
:104270008000322101EB00106421B0FBF1F000F06E
:104280000F003044216888605BE0FDF70DFC00EB17
:10429000C00101EB001061688900B0FBF1F6FDF789
:1042A00003FC00EBC00101EB001061688900B0FB6A
:1042B000F1F06421B0FBF1F000EBC00101EB001064
:1042C000A6EB8000322101EB00106421B0FBF1F07D
:1042D00000F0F006FDF7E8FB00EBC00101EB001079
:1042E00061688900B0FBF1F06421B0FBF1F006EBEE
:1042F0000016FDF7D9FB00EBC00101EB001061686F
:104300008900B0FBF1F7FDF7CFFB00EBC00101EB3B
:10431000001061688900B0FBF1F06421B0FBF1F09E
:1043200000EBC00101EB0010A7EB8000322101EB94
:1043300000106421B0FBF1F000F00F003044216860
:104340008860BDE8F081000000380140014691F826
:10435000390021282CD18868B0F5805F0FD10A6A16
:104360001088C0F308000B685860086918B9086A1B
:10437000801C086209E0086A401C086205E00B6ABC
:10438000581C086218780B685860C88C401E80B2B0
:10439000C88458B90868C06820F080000B68D860ED
:1043A0000868C06840F040000B68D8600020704783
:1043B0000220FCE710B5034800F068F80148FEF75A
:1043C000CFF910BDF002002010B50248FEF7C8F981
:1043D00010BD00003003002010B50248FEF7C0F900
:1043E00010BD00007003002010B50248FCF789F9E9
:1043F00010BD00009400002010B50248FCF781F9C0
:1044000010BD00009400002000BFFEE702E008C8D5
:10441000121F08C1002AFAD170477047002001E03E
:1044200001C1121F002AFBD170470000FDF7F2F80E
:10443000FFF7A3FCFFF77EFAFFF732FAFFF7E6F982
:10444000FFF712FAFFF7EAFAFFF706FBFFF726FB82
:10445000FFF758FBFFF788FBFFF7BAFBFFF7ECFB12
:10446000FFF706FCFFF720FC502206490648FEF73E
:10447000A9FB05E04FF47A70FCF74AFD00F046F81E
:10448000F8E700003E050020F002002038B50446A1
:1044900020680068C0F3001020B300BF0020009027
:1044A00020680068009020684068009000BF00BF4E
:1044B0006FF02000216808602046FEF71CF90F49C4
:1044C0002068884205D10E480068401C0C490860ED
:1044D00012E00C492068884205D109480068401C58
:1044E0000749086008E008492068884204D1044868
:1044F0000068401C0249086038BD000000380140D7
:1045000018000020004400400048004010B5034857
:10451000027841680248FEF7C1FB10BD1000002080
:10452000F00200200000000000000000010203046F
:1045300006070809000000000102030473797320D4
:1045400074696D653A0D0A00684500080000002096
:10455000200000000C4400088845000820000020CE
:10456000C00900001C44000800000000100000000A
:104570000100000000A24A040B0000003C450008B6
:08458000000000000000000033
:04000005080000ED02
:00000001FF
