:020000040800F2
:10000000C014002001010008632C000873250008BB
:10001000612C000835020008F14B000800000000C8
:10002000000000000000000000000000AF350008E4
:10003000AB02000800000000E72F0008B1350008FF
:100040001B0100081B0100081B0100081B01000820
:100050001B0100081B0100081B0100081B01000810
:100060001B0100081B0100081B0100081B01000800
:100070003902000845020008510200085D0200082C
:1000800069020008750200081B0100081B01000836
:100090004D4B00081B0100081B0100081B01000854
:1000A0001B010008613600081B0100081B01000845
:1000B0006D36000879360008853600081B010008F7
:1000C0001B0100081B0100081B0100086D3500081A
:1000D0001B010008913A00089D3A0008A93A00085F
:1000E0001B0100081B0100081B010008DFF80CD0F1
:1000F00000F03CF800480047114C0008C0140020F4
:100100000648804706480047FEE7FEE7FEE7FEE7B1
:10011000FEE7FEE7FEE7FEE7FEE7FEE7193600082A
:10012000ED00000840EA01039B0703D009E008C97D
:10013000121F08C0042AFAD203E011F8013B00F8AC
:10014000013B521EF9D27047D2B201E000F8012BF8
:10015000491EFBD270470022F6E710B513460A4647
:1001600004461946FFF7F0FF204610BD064C074D28
:1001700006E0E06840F0010394E807009847103477
:10018000AC42F6D3FFF7B6FFC84C0008E84C0008B5
:1001900070B58C1810F8015B15F0070301D110F849
:1001A000013B2A1106D110F8012B03E010F8016B76
:1001B00001F8016B5B1EF9D12B0705D40023521EF9
:1001C0000DD401F8013BFAE710F8013BCB1A921C61
:1001D00003E013F8015B01F8015B521EF9D5A1425F
:1001E000D8D3002070BD000070B504460068816857
:1001F000C943C9071CD1816821F00101816000F069
:10020000DFFD05460FE000BF00F0DAFD401B0228CD
:1002100009D9A06A40F01000A062E06A40F0010035
:10022000E062012070BD20688068C043C007EBD049
:10023000002070BDFEE70000014800F0C1BB0000D7
:1002400068020020014800F0BBBB0000AC020020A7
:10025000014800F0B5BB0000F4040020014800F0A4
:10026000AFBB0000B0040020014800F0A9BB0000B3
:1002700038050020014800F0A3BB00007C050020E9
:1002800030B590F840500124AC40C56B6C600468F8
:1002900063604368102B036803D099600068C260F4
:1002A00030BD9A600068C16030BD70477047002261
:1002B000AFF3008030B50E4B054601205C7A012C6F
:1002C00015D8587A00241C54587A03EB80004560F6
:1002D0005D7A03F108002A54587A421C5A72303071
:1002E00008703A2048702F208870CC70002030BDF4
:1002F000B4100020F8B50024009490F8242025467E
:10030000012A12D0012280F824204A681F23072ADC
:100310000DD20668776B521E02EB820293409F4318
:100320000B6893401F43776319E00220F8BD06680D
:100330000D2A0AD2376BD21F02EB820293409F43F1
:100340000B6893401F43376309E0F76A0D3A02EBED
:10035000820293409F430B6893401F43F7620A68F1
:10036000072306680A2A0AD3F7680A3A02EB420210
:1003700093409F438B6893401F43F76008E03769C1
:1003800002EB420293409F438B6893401F433761C7
:100390000A68102A01D0112A20D1124B02689A4211
:1003A00017D193681B0219D4936843F40003936038
:1003B0000968102912D10C490C4A0968B1FBF2F105
:1003C00001EB8101490000E0491E00910029FBD1A9
:1003D00004E0816A41F020018162012480F8245008
:1003E0002046F8BD00240140B400002040420F0028
:1003F0002DE9F0414FF0000704003D467ED0A06A91
:10040000002628B9E66284F82460204600F07EF8D1
:100410002046FFF7E9FEA16A01F01001014304D074
:10042000A06A40F01000A06268E0A16A21F488513F
:1004300041F00201A1626268E169E3680A4347EAA8
:1004400043010A43A1684FF48077B94208D00129DB
:1004500006D00021D4F814C0BCF1010F02D00AE08C
:100460003946F7E7F3B1A36A43F02003A362E36AD6
:1004700043F00103E3622368D3F804C02CF4694C11
:100480004CEA010CC3F804C023689968DFF870C017
:1004900001EA0C0111439960A168B9420BD001290E
:1004A00009D00CE0DFF85CC0A3690CEB43330B43CD
:1004B00043F40061DFE7218A0D05A5F58015216869
:1004C000CB6A23F470032B43CB62216889680E4BFF
:1004D0001940914208D1E662A16A21F0020141F07F
:1004E0000101A162BDE8F081A06A20F0020040F0A5
:1004F0001000A062E06A40F00100E0620120F1E734
:10050000FDF7E1FF00E0FFFFFE0E1FFF00B585B025
:100510000021009101910291039100680E498842E7
:1005200017D10E48816941F400718161816901F43C
:1005300000710491816941F0080181618069694617
:1005400000F008000490032000900190044800F09F
:1005500059FB05B000BD000000240140001002401E
:10056000000C014070472DE9F05F0546006800244B
:100570004669D0F804908768D0F80CB0D0F810A085
:10058000D0F81880F10748D0F90714D00121816014
:10059000B80703D5284600F0C1F90CE0780702D56A
:1005A0004FF4006407E0380702D54FF4805402E0AE
:1005B000284600F0B2F9F80516D529684FF4807086
:1005C0008860B80503D5284600F0AAF90CE0780544
:1005D00002D544F4005407E0380502D544F48044C1
:1005E00002E0284600F09BF9F80316D529684FF47D
:1005F00080308860B80303D5284600F093F90CE0FA
:10060000780302D544F4004407E0380302D544F4EB
:10061000803402E0284600F084F9300707D55FEA0D
:10062000CB6004D52968102044F40074C8607007BA
:100630004FF0080707D55FEA0B7004D52868C7603C
:10064000284600F065F9B00706D52868C06880071D
:1006500002D0284600F05DF9700607D55FEACA604F
:1006600004D52968102044F480640861B00607D5D9
:100670005FEA0A7004D528680761284600F04AF945
:10068000F00606D528680069800702D0284600F0E9
:1006900042F9B00308D55FEAC96005D52968102082
:1006A0004860284600F038F9F00307D55FEA097082
:1006B00004D528684760284600F035F9300446D54F
:1006C0005FEA497040D5F00504D55FEAC87001D0F3
:1006D00044F00104B00504D55FEA887001D544F008
:1006E0000204700504D55FEA487001D544F00404A3
:1006F000300529D518F0700F26D008F0700040287A
:1007000015D006DC102809D020280AD0302816D1B0
:100710000AE050280ED0602811D10EE044F0080401
:100720000DE044F010040AE044F0200407E044F037
:10073000400404E044F0800401E044F4807428683C
:10074000816921F070018161296804204860002CD2
:1007500005D0686A204368622846FFF703FFBDE8BA
:10076000F09F70B5040003D094F8200010B104E0AD
:10077000012070BD204600F081F82068016821F05A
:100780000201016000F01CFB0546052604E000F0B4
:1007900017FB401B0A2811D8206840688007F6D450
:1007A0002068016841F00101016000F009FB054685
:1007B0000BE000F005FB401B0A2806D9606A40F4F4
:1007C0000030606284F82060D2E720684068C0078B
:1007D000EFD0207E0128206801683DD021F0800103
:1007E0000160607E01282068016838D021F0400156
:1007F0000160A07E01282068016833D021F020012B
:100800000160E07E0128206801682ED041F01001CF
:100810000160207F01282068016829D021F00801AB
:100820000160607F01282068016824D021F0040164
:100830000160D4E902010843D4E9041211430843DA
:100840006168491E08432168C86100206062012078
:1008500084F82000002070BD41F08001C0E741F025
:100860004001C5E741F02001CAE721F01001CFE7C0
:1008700041F00801D4E741F00401D9E710B586B092
:100880000021009101910291039100681C49884266
:1008900033D11C48C16941F00071C161C16901F0E7
:1008A00000710491816941F0080181618069164CF1
:1008B00000F0080004904FF48070009069462046D4
:1008C00000F0A0F960150090022001900320039031
:1008D0006946204600F096F90C48416821F4C04171
:1008E00041F0E06141F48041416000221146142052
:1008F00000F09EFB142000F08FFB06B010BD00003E
:100900000064004000100240000C01400000014063
:10091000704770477047704770477047704770471F
:10092000704770477047704710B590F82110002449
:10093000022903D00421816301243DE001680A6893
:1009400022F00E020A6001680A6822F001020A60C1
:100950001A4A0168914201D1012121E0174A14325B
:10096000914201D110211BE0144A2832914201D159
:10097000891515E0114A3C32914201D189140FE0EA
:100980000E4A5032914202D14FF4803108E00B4AB6
:100990006432914202D14FF4801101E04FF0807136
:1009A000064A083A5160012180F82110002180F8A0
:1009B0002010416B01B18847204610BD080002405D
:1009C0002DE9F05FC16B0C6801680B68D0F840C07E
:1009D000042202FA0CF2494DDFF824A1494E4A4F95
:1009E000DFF828B1DFF828E122422CD05A072AD5B7
:1009F0000A68920603D40A6822F004020A600168B9
:100A0000A94201D1042219E0514501D1402215E04B
:100A1000B14202D14FF4806210E0B94202D14FF4EA
:100A200080420BE0594502D14FF4802206E0714527
:100A300002D14FF4800201E04FF080622F49083963
:100A40004A60C16A3BE04FF0020808FA0CF818EA65
:100A5000040F4FF000094FF0010235D05FEA8378B0
:100A600032D50B689B0605D40B6823F00A030B6094
:100A700080F821200168A94201D1022219E05145E4
:100A800001D1202215E0B14202D14FF4007210E0F2
:100A9000B94202D14FF400520BE0594502D14FF454
:100AA000003206E0714502D14FF4001201E04FF030
:100AB0000072124908394A6080F82090816A002942
:100AC0001AD0BDE8F05F0847082505FA0CF5254265
:100AD00012D01B0710D50B6823F00E030B6090F8A3
:100AE0004010C36B02FA01F15960826380F8212043
:100AF00080F82090016BE2E7BDE8F09F080002401B
:100B00001C000240300002404400024058000240F5
:100B10006C00024030B528B308C8134914221944A8
:100B2000B1FBF2F18900C163104981630221417771
:100B30001A6843F6F0718A43D0E900142143D0E9E2
:100B400002452C43214304692143446921438469BC
:100B5000214311431960002141630122427701774B
:100B6000084630BD012030BDF8FFFDBF0000024047
:100B700070B5044690F82000002501280CD0012013
:100B800084F8200094F821600020012E06D084F81B
:100B900020000225284670BD022070BD022684F880
:100BA0002160A0632068066826F0010606602046E2
:100BB000FFF766FBE06A00282068016802D041F078
:100BC0000E0106E021F0040101602068016841F097
:100BD0000A0101602068016841F001010160D9E764
:100BE00070B5044600F0ECF80546601C02D00448DD
:100BF0000078044400F0E4F8401BA042FAD370BD32
:100C0000A80000202DE9F84FDFF890A100220AF19A
:100C1000040B144601274FF00F090BF1040E00BF1F
:100C20000B6807FA04F52B40AB4274D1DFF870C1B2
:100C30004E68A6EB0C0866452BD00DDC032E34D095
:100C400005DC36B3012E19D0022E2FD11BE0112E58
:100C500016D0122E2AD119E0B8F5881F19D006DC5B
:100C6000B8F5803F15D0B8F5801F1FD111E0B8F559
:100C7000001F0ED0B8F5041F18D10AE0CA6815E0AD
:100C8000CA68121D12E0CA6808320FE0CA680C3246
:100C90000CE08A682AB1012A4FF0080203D04561AE
:100CA00004E0042202E0056100E00022FF2B01D8ED
:100CB000064601E000F104064FEA840501D9A5F1DA
:100CC0002005D6F800C009FA05F82CEA080C02FA4B
:100CD00005F54CEA050CC6F800C04D68ED0057D587
:100CE000304DAE6946F00106AE61AD6924F00306F1
:100CF00005F0010500952C4D06EB050CDCF80850BD
:100D0000A6074FEA167809FA08F6B543274EB0420F
:100D100002D1002610E03BE0254EB04201D1012671
:100D20000AE0244EB04201D1022605E0224EB04234
:100D300001D1032600E0042606FA08F62E43CCF87B
:100D400008604D68DAF80060ED03554601D51E4392
:100D500000E09E432E604D68DBF80060AD035D4609
:100D600001D51E4300E09E432E604D68DEF8006012
:100D7000ED02754601D51E4300E09E432E604D688E
:100D8000AD020E4D2E6801D51E4300E09E432E603D
:100D9000641C102CFFF444AFBDE8F88F0004014040
:100DA0000000111000100240000001400008014046
:100DB000000C014000100140001401400C040140EF
:100DC0000148806870470000A800002070B504004A
:100DD0001BD094F83D00002520B984F83C502046F3
:100DE00000F094F8242084F83D002068016821F088
:100DF0000101016000F0EAFC404A6168914201D8BB
:100E00003F4900E03F49884201D2012070BD3E4980
:100E10002368B0FBF1F159606368934206D94FF43F
:100E2000967359434FF47A73B1FBF3F12368491C6D
:100E300019626168914210D84900401EB0FBF1F27E
:100E4000521CC2F30B02042A01D2042022E0B0FBA0
:100E5000F1F0401CC0F30B001CE0A368CBB301EB26
:100E6000C10202EB0116421EB2FBF6F2521C42F422
:100E70008042120536D06BB301EBC10202EB0111C7
:100E8000401EB0FBF1F0401CC0F30B0040F480406A
:100E900040F400402168C861D4E907010843216893
:100EA0000860D4E90310084321688860D4E905018B
:100EB00008432168C8602068016841F001010160B1
:100EC0002564202084F83D00256384F83E500020EE
:100ED00070BD00E008E001EB4106421EB2FBF6F2F5
:100EE000521CC6E70120D5E701EB4101401EB0FBD3
:100EF000F1F0401CC0F30B00CAE70000A08601001F
:100F000080841E0000093D0040420F0010B586B0ED
:100F10000021009101910291039100680F498842DC
:100F20001AD10F4CA06940F00800A061A069694681
:100F300000F008000490C0200090122001900320CF
:100F400003900848FFF75EFEE06940F40010E0619E
:100F5000E06900F40010049006B010BD0054004099
:100F600000100240000C01400248816802781144E0
:100F700081607047A8000020074810B5016841F063
:100F800010010160032000F073F8002000F006F863
:100F900000F024F8002010BD0020024070B50D4D77
:100FA00004464FF47A712878B1FBF0F00A490968D9
:100FB000B1FBF0F000F0F4FE48B9102C07D200228B
:100FC0002146501E00F034F800206C6070BD0120F6
:100FD00070BD0000A8000020B40000200C4808B537
:100FE000816941F001018161816901F00101009194
:100FF000C16941F08051C161C06900F0805000902A
:101000000448416821F0E06141F00071416008BD91
:10101000001002400000014000F01F020121914039
:101020004009800000F1E020C0F800117047000086
:10103000F0B40E4B1B680C46C3F30223C3F1070543
:10104000042D00D90425191D072901D2002300E031
:10105000DB1E012606FA05F1491E214099409E40FB
:10106000761E16403143F0BC01F0FCBD0CED00E0F3
:10107000064900F0070208684FF6FF03184040EAEF
:101080000220034A10430860704700000CED00E0A6
:101090000000FA0510B50C0605D501F07F0100EB44
:1010A0004110283003E000EB411000F50A7099B2BE
:1010B00032B101228272C180190C0181002010BD61
:1010C000002282728180F9E7704700EB4112D0F86C
:1010D0005C04D26B02F06CBE00EB4112D0F85C04F1
:1010E000D2F83C2202F0B9BE10B504460A460B06FF
:1010F00001F07F0004EB401101D5283101E001F53A
:101100000A710870D009487094F82804012809D0A1
:10111000012084F82804206803F030FB002084F8C4
:10112000280410BD022010BD70B50A460446090609
:1011300002F07F0003D504EB4011283103E004EBFB
:10114000421101F50A7100258D700870D0094870B0
:1011500094F82804012809D0012084F82804206884
:1011600003F0BAFB84F82854002070BD022070BD43
:1011700010B5044690F8280401280AD0012084F80C
:101180002804080607D501F07F01206803F0DCFC85
:1011900004E0022010BD206803F0D4FC002084F895
:1011A000280410BD01F00F0100EB4110B0F844021B
:1011B00080B2704770B504460D460E0601F07F0000
:1011C00004EB401101D5283101E001F50A710870E6
:1011D000E80948700A61CB7094F82804012809D006
:1011E000012084F82804206803F098F9002084F88E
:1011F000280470BD022070BD70B50C4601F07F055B
:1012000000EB4511C1E98F230022C1F8442281F887
:10121000292281F8285201F50A716206006803F05C
:10122000B5FB002070BD70B50D460446090605F0FB
:101230007F0003D504EB4011283103E004EB451196
:1012400001F50A7101228A700870E809487094F863
:101250002804012807D084F82824206803F071FBB3
:10126000680602D006E0022070BD04F22C4120681E
:1012700003F030FB002084F8280470BD70B50C46E4
:1012800001F07F0500EB4511C1E90F2300224A64FC
:10129000012281F8292001F8285F6206006803F026
:1012A00075FB002070BD10B50446006803F05CFCBF
:1012B000000402D5204601F0E5FC206803F054FC50
:1012C00040050CD5206830F8441F21F4806101806E
:1012D000204600F0EDF80021204600F004F92068D7
:1012E00003F042FC400405D5206830F8441F21F487
:1012F00080410180206803F037FC800405D5206818
:1013000030F8441F21F400510180206803F02CFCC8
:10131000C00414D5206830F8401F21F0040101807A
:10132000206830F8401F21F008010180204600F0BD
:10133000D2F8206830F8441F21F4805101802068E1
:1013400003F012FC00051AD5206830F8401F41F068
:1013500008010180206830F8441F21F400610180F9
:10136000206830F8401F41F004010180206803F03C
:10137000FBFBC043C00402D5204600F0E9F820681A
:1013800003F0F2FB800508D5206830F8441F21F4F3
:1013900000710180204600F0A2F8206803F0E4FB11
:1013A000C00505D5206830F8441F21F48071018004
:1013B00010BD00002DE9F04186B004004FF000059B
:1013C00004D094F82904002620B108E0012006B0DA
:1013D000BDE8F08184F82864204600F04BF8032033
:1013E00084F82904206803F06EFA04F11001142235
:1013F00088466846FEF796FE94E80F0003F0BCF9B5
:101400000021206803F0C3FB5FF0010704EB4510E7
:1014100080F8297000F8285F8581C67006614661F2
:101420006D1C86610F2DF1D35FF0000004EB4011BD
:1014300081F8296281F82802888681F82B62C1F838
:101440003862C1F83C62401CC1F840620F28EDD3FD
:10145000142241466846FEF765FE94E80F0003F04B
:1014600023FA84F8246084F82974206803F01AFAB7
:101470000020ACE708B500680B49884212D10B4840
:10148000C16941F40001C161C069002200F400009B
:10149000009011461420FFF7CBFDBDE80840142052
:1014A000FFF7BABD08BD0000005C0040001002401C
:1014B00070B5044680680125022801D0FEF7F6FECB
:1014C0002946D4F85C0402F097FDD4F85C04BDE82A
:1014D000704002F060BDD0F85C0402F07BBDD0F833
:1014E0005C0402F07DBD10B5044690F82804012884
:1014F0000BD0012084F8280484F82410206803F01D
:1015000048FB002084F8280410BD022010BDD0F84C
:101510005C2400F22C41104602F07ABD10B504465E
:1015200090F82804012810D0012084F828040146EE
:101530002046FFF7C9FD206803F0B2F9206803F0E8
:10154000FAFA002084F8280410BD022010BD000023
:1015500010B50446D0F85C0402F099FDA06900289B
:1015600004D00348016841F00601016010BD00008D
:1015700010ED00E02DE9F84305460078354CC00732
:1015800054D0E0690026C00008D4E06940F08050E3
:10159000E061E069012600F0805000902E4801686B
:1015A000C90512D40168804641F480710160FFF7DB
:1015B00007FC074605E000BFFFF702FCC01B6428DC
:1015C00023D8D8F80000C005F6D5206A10F4407082
:1015D00021D0A98801F4407181421CD0206A1F49A2
:1015E000012220F440700A6000220A602062C007D5
:1015F00011D0FFF7E5FB074641F2883808E000BF4D
:10160000FFF7DEFBC11B414502D90320BDE8F8838B
:10161000206A8007F4D5206A696820F44070084386
:1016200020621EB1E06920F08050E06128788007D8
:1016300005D56068A96820F44040084360602878B8
:10164000C00605D56068E96820F480000843606042
:101650000020DBE7001002400070004040044242DE
:101660002DE9F047DFF8548105460E46D8F8000012
:1016700000F00700B0420CD2D8F8001021F00701AA
:101680003143C8F80010D8F8000000F00700B0425D
:101690006FD128684A4C810712D5400703D560688E
:1016A00040F4E06060602878000703D5606840F48B
:1016B000605060606068A96820F0F00008436060D6
:1016C0002878C00744D06868012816D0216802280D
:1016D00016D0890700294CDA616821F00301014323
:1016E0006160FFF76DFB6968074641F288300129A8
:1016F0000ED00229814618D026E021688903E9E747
:101700008901E7E7FFF75CFBC11B494501D918E0F8
:1017100081466068C0F381000128F3D118E000BF62
:10172000FFF74EFBC11B49450BD86068C0F3810031
:101730000228F5D10CE000BFFFF742FBC11B494571
:1017400002D90320BDE8F087606810F00C0FF3D1D8
:10175000D8F80010404601F00701B1420BD90168EA
:1017600021F0070131430160006800F00700B0423A
:1017700001D00120E6E72878400705D56068E968D0
:1017800020F4E060084360602878000706D56068B0
:10179000296920F4605040EAC100606000F036F82A
:1017A0006168084AC1F30311515CC84006490860EA
:1017B0000020FFF7F3FB0020C4E7000000200240F8
:1017C00000100240984C0008B4000020044805496D
:1017D00000684968044AC1F30221515CC84070475F
:1017E000B400002000100240A84C0008044805493D
:1017F00000684968044AC1F3C221515CC84070477F
:10180000B400002000100240A84C000812A185B0CE
:101810000FC98DE80F0014A0144A006804905168A5
:10182000134801F00C03042B10D0082B0ED1C1F388
:101830008343C9031DF803000AD5516804AAC1F304
:101840004041515C0A4A5043B0FBF1F005B070478B
:1018500008494843FAE7000002030405060708099F
:101860000A0B0C0D0E0F10100102000000100240B8
:1018700000127A0000093D002DE9F84F0446007877
:10188000B94DC00748D06868C0F38100012807D06F
:101890006868C0F38100022809D16868C00306D5D2
:1018A0002868800338D5606800286FD034E060680D
:1018B000B0F5803F0BD010B1B0F5A02F11D0286843
:1018C00020F480302860286820F4802002E0286816
:1018D00040F480302860606888B1FFF771FA0646EE
:1018E00009E0286840F480202860F0E7FFF768FAF4
:1018F000801B642875D828688003F7D50CE0FFF7B3
:101900005FFA064605E000BFFFF75AFA801B64281D
:10191000F0D828688003F7D42078944E80074FF0E1
:1019200001094FF000083BD5686810F00C0F07D094
:101930006868C0F38100022809D16868C00306D432
:101940002868800714D5206901281FD110E020697C
:10195000B0B1C6F80090FFF733FA074605E000BFC4
:10196000FFF72EFAC01B0228C4D828688007F7D5D5
:101970002868616920F0F80040EAC10028600FE0A3
:10198000C6F80080FFF71CFA074606E0E9E000BF52
:10199000FFF716FAC01B022823D828688007F7D45F
:1019A000207800072CD57248A169D9B1C0F8009001
:1019B000FFF706FA074604E0FFF702FAC01B022809
:1019C0000FD8686A8007F7D56A484FF4FA51006863
:1019D000B0FBF1F0009000BF0098411E0091FAD2D8
:1019E0000EE080E0C0F80080FFF7EAF9074604E067
:1019F000FFF7E6F9C01B022875D8686A8007F7D49C
:101A00002078400760D5E8690027C00008D4E8695D
:101A100040F08050E861E869012700F080500090B4
:101A200055480168C90513D40168834641F48071A3
:101A30000160FFF7C5F9824606E000BFFFF7C0F975
:101A4000A0EB0A0064284ED8DBF80000C005F5D5ED
:101A5000E06801280AD008B1052813D0286A20F0D0
:101A600001002862286A20F0040002E0286A40F0A1
:101A700001002862E06841F2883B98B1FFF7A0F9C5
:101A800082460BE0286A40F004002862EEE700BFBF
:101A9000FFF796F9A0EB0A0159455AD8286A800742
:101AA000F6D50CE0FFF78CF9824605E0FFF788F9E0
:101AB000A0EB0A0159454CD8286A8007F6D41FB11B
:101AC000E86920F08050E861E06988B36968C1F393
:101AD0008101022945D00228C6F8608004D0FFF7B2
:101AE0006FF9044638E034E0FFF76AF9074604E08E
:101AF000FFF766F9C01B02282BD828688001F7D4AD
:101B0000206AB0F5803F05D16868A16820F40030F4
:101B100008436860D4E908010843696821F4741136
:101B200008436860C6F86090FFF74AF9044606E08B
:101B300015E000BFFFF744F9001B022809D8286808
:101B40008001F7D50BE000BFFFF73AF9001B022830
:101B500002D90320BDE8F88F28688001F4D4002062
:101B6000F8E70120F6E700000010024000004242C2
:101B700080044242B4000020007000407047000022
:101B800038B504460068426881684B0605D4CB0727
:101B900003D0530601D5216C04E08B0707D513064B
:101BA00005D5616C01B02046BDE83040084711F012
:101BB000600F3FD093063DD54B060AD594F85130BF
:101BC000032B34D0636D43F004036365C3688368FB
:101BD0000093890609D5616D41F001016165816855
:101BE0000091016821F040010160606D002821D062
:101BF0002068416821F0E0014160012084F8510033
:101C0000900718D02068416821F0030141600C4D15
:101C1000E06C18B14563E06CFEF786FEA06C00280E
:101C200008D04563A06CBDE83840FEF77DBEC168B2
:101C30008068009038BD2046FFF7A0FF38BD000047
:101C40007935000870B5040005D00025A56294F828
:101C5000510010B104E0012070BD204600F034F8BE
:101C6000022084F851002068016821F040010160E1
:101C7000D4E901010843D4E903121143084361691F
:101C80000843218B01F400710843E1690843216A8C
:101C90000843A16A084321680860A069042101EA99
:101CA0001040616A0843216848602168E06A086161
:101CB0002068C16921F40061C1616565012084F873
:101CC0005100002070BD0000F0B585B0002406462C
:101CD000009401940294039400682C49884253D1E3
:101CE0002B48816941F480518161816901F48051FF
:101CF0000491816941F0040181618069254D00F002
:101D000004000490B0200090022001900320039072
:101D100069462846FEF776FF4020CDE90004694673
:101D200028460294FEF76EFF1C4D1B488027C5E92C
:101D30000004C5E902472C616C61AC612846EC6186
:101D4000FEF7E8FE08B1FEF7B1FAF5646E62134DD6
:101D500011484435143001C5102091C50F4845F88D
:101D6000104944306C61AC61EC61FEF7D3FE08B100
:101D7000FEF79CFAB5640022114623206E62FFF73D
:101D800057F92320FFF748F905B0F0BD00300140B6
:101D900000100240000801401C00024068020020C0
:101DA00010B5401EB0F1807F01D3012010BD4FF06F
:101DB000E02460610F21601700F054FF0020A06153
:101DC00007202061002010BD7047704730B590F8A3
:101DD0003C20012A20D0012280F83C20022380F8F8
:101DE0003D3003685C6824F070045C6003685C68E4
:101DF0000D682C435C6003689C6824F080049C6040
:101E000003689C6849680C439C6080F83D20002171
:101E100080F83C10084630BD022030BD10B50400EB
:101E200003D094F83D0010B107E0012010BD002060
:101E300084F83C00204600F00DF8022084F83D00B4
:101E4000211D206801F024FC012084F83D000020C1
:101E500010BD000008B5274A0168274891420ED1FD
:101E6000816941F4006181618069002200F40060B1
:101E7000009011461920FFF7DBF8192034E0B1F18A
:101E8000804F11D01D4A91421DD1C16941F002011C
:101E9000C161C069002200F00200009011461D20BF
:101EA000FFF7C6F81D201FE0C16941F00101C161C3
:101EB000C069002200F00100009011461C20FFF7CD
:101EC000B7F81C2010E00E4A914211D1C16941F0CF
:101ED0000401C161C069002200F0040000901146B5
:101EE0001E20FFF7A5F81E20BDE80840FFF794B8B4
:101EF00008BD0000002C014000100240000400401A
:101F00000008004070B5044690F83C00012817D046
:101F1000012584F83C50022084F83D002068826846
:101F200022F0770222F47F4282600868502837D07E
:101F30000DDC202859D005DC88B3102841D151E0B0
:101F4000022070BD302853D040283AD13FE06028AD
:101F50002ED070280BD0B0F5805F03D0B0F5005FB5
:101F60002FD110E02068816821F0070115E0CB68CF
:101F7000D1E90121206801F0C1FB2168886840F0A7
:101F8000770088601DE0CB68D1E90121206801F06D
:101F9000B5FB2068816841F48041816011E01EE05A
:101FA000CA684968206801F0BBFB5021206806E040
:101FB000CA684968206801F0C4FB6021206801F00C
:101FC000A7FB84F83D50002084F83C0070BDCA682F
:101FD0004968206801F0A4FB40212068EFE7002158
:101FE0002068ECE710212068E9E720212068E6E777
:101FF00030212068E3E7704770B504460068016946
:102000004FF00005C943890715D4C168C943890742
:1020100011D4E91E016101202077206880698007C2
:10202000204602D0FFF7E7FF04E000F098F82046D2
:1020300000F096F8257720680169C943490717D44D
:10204000C168C943490713D46FF00401016102203C
:1020500020772068806910F4407F204602D0FFF787
:10206000CAFF04E000F07BF8204600F079F82577FD
:1020700020680169C943090716D4C168C943090723
:1020800012D46FF008010161042020772068C06934
:102090008007204602D0FFF7AEFF04E000F05FF8B3
:1020A000204600F05DF8257720680169C943C9061C
:1020B00017D4C168C943C90613D46FF01001016178
:1020C000082020772068C06910F4407F204602D0A5
:1020D000FFF791FF04E000F042F8204600F040F8DE
:1020E000257720680169C943C90708D1C168C94378
:1020F000C90704D1891E0161204600F032F820682A
:102100000169C943090609D4C168C943090605D450
:102110006FF0800101612046FFF756FE20680169DB
:10212000C943490609D4C168C943490605D46FF0BB
:1021300040010161204600F015F820680169C9439B
:1021400089060BD4C168C943890607D46FF0200102
:1021500001612046BDE87040FFF737BE70BD704793
:10216000704770477047704770B502680446106842
:10217000D168536910F00F0F51D003F0010501F43D
:10218000907635435DD0C20705D0CA0503D5E26B12
:1021900042F00102E263420705D5DA0703D0E26BA1
:1021A00042F00202E263820705D5DA0703D0E26B50
:1021B00042F00402E263020705D5DA0703D0E26BBE
:1021C00042F00802E263E26B002A34D0800604D5B4
:1021D000880602D5204601F026FB20684069E16BA5
:1021E000C0F3801001F008010143204624D001F023
:1021F00003FB2068416949061AD5416921F0400175
:102200004161606BA0B11B494163606BFEF78CFBC1
:10221000002810D0606B416BBDE870400847830612
:102220000FD58B060DD52046BDE8704001F0FBBAF6
:102230002046FFF798FF70BDFFF795FF0020E06391
:1022400070BD030606D50B0604D52046BDE87040D8
:1022500001F0ECBB4006F3D54806F1D5D168204625
:1022600021F04001D160202184F8391000F06CF990
:1022700070BD00006737000870B5040004D094F802
:102280003900002510B106E0012070BD84F83850F7
:10229000204600F023F8242084F839002068C16823
:1022A00021F40051C160204601F008FB206801695B
:1022B00021F4904101612068416921F02A014161C6
:1022C0002068C16841F40051C160E563202084F8B2
:1022D000390084F83A00002070BD00002DE9F04379
:1022E00085B0002500950195029503950446DFF819
:1022F000B4C103686C48022103226C4F80264FF45E
:1023000080684FF0100963454BD1836943F48043E3
:102310008361836903F480430493836943F0040376
:1023200083618069039200F0040004900802CDE903
:10233000000169463846FEF765FCCDE9008569462F
:1023400038460295FEF75EFC5A4F5948C7E900052A
:10235000C7E902563D617D61BD613846FD61FEF70A
:10236000D9FB08B1FDF7A2FF67637C62514F50486B
:1023700044371438C7E902563D617D61BD61FD6196
:10238000C7E900093846FEF7C5FB08B1FDF78EFF27
:1023900027630022114625207C62FEF749FE252096
:1023A00051E0DFF814C1634552D1C36943F40033EF
:1023B000C361C36903F400330493836943F00403E6
:1023C00083618069039200F0040004900420CDE949
:1023D000000169463846FEF715FC0820CDE90005E6
:1023E000694638460295FEF70DFC324F3048883773
:1023F0001430C7E90005C7E902563D617D61BD6142
:102400003846FD61FEF786FB08B1FDF74FFF6763B5
:102410007C62284F2648CC372830C7E902563D61F8
:102420007D61BD61FD61C7E900093846FEF772FBB9
:1024300008B1FDF73BFF27630022114626207C628E
:10244000FEF7F6FD2620FEF7E7FD05B0BDE8F083B8
:102450001A4CA342F9D1C36943F48023C361C36911
:1024600003F480230493836943F008038361806944
:10247000CDE9008100F00800CDE90320104C694649
:102480002046FEF7BFFBE014CDE900056946204673
:102490000295FEF7B7FB002211462720FEF7C8FD84
:1024A0002720D0E70038014000100240000801401A
:1024B00058000240B00400200044004000480040A2
:1024C000000C01407047000070B5044690F83900D8
:1024D000202830D169B362B394F8380001282AD09B
:1024E000012084F838002162A284E2840025E5639B
:1024F000212084F83900236B10489862236B104820
:10250000D862236B0F481863206B13464563266817
:10251000206B321DFEF72CFB21686FF04000086035
:1025200084F838502068416941F080014161002001
:1025300070BD012070BD022070BD0000C1370008D1
:10254000EF370008773700080749064B026808682C
:102550009A4201D1401C03E0044B9A4201D1401E33
:1025600008607047003801406001002000440040CE
:102570007047FEE7F0B500230A24302537261F46B2
:1025800011E000BFB4EB107F02D905EB107C01E035
:1025900006EB107C01F813C001EB430C00015B1C3F
:1025A0008CF80170DBB29342ECD3F0BD70B5D0F87B
:1025B0001842054694F8180240B9D4F8140228B11C
:1025C000607A18B90121284601F04FFD8121284683
:1025D00001F04BFD607A022808D104F50372284609
:1025E000BDE870401F23012101F0CCBC70BD00008C
:1025F00070B5D0F8184206460121D4F81002C4F88C
:102600003002D4F81402C4F83402304601F063FCFE
:102610001F280DD12849D4F80C02884208D194F81B
:102620001912012904D894F81A0208B1102809D9FE
:1026300094F8191220230522304600F016FF0220DC
:10264000607209E004F21B22304600F0DFFC002833
:10265000207A08DA052804D03046BDE87040FFF73C
:10266000A5BF012121E0022824D0012822D003287F
:1026700020D06189C9B1D6F81852304604F10C0255
:10268000D5F814328B4200D219468BB2D5F83412E9
:10269000C91AC5F83412002185F8381204212972AC
:1026A000BDE87040812101F0FBBC3046BDE87040C0
:1026B00000F084B870BD00005553424310B5D0F807
:1026C0001842627A022A08D009060BD5012A09D0DD
:1026D000BDE81040012100F071B8812101F0C5FC76
:1026E0000020607210BD10B5D0F818220446107A90
:1026F000022805D0032801D0042810D1002109E0C8
:1027000092F81912204602F21B2200F07FFC0028EA
:1027100005DA01212046BDE8104000F04FB810BD99
:1027200010B5D0F818220446107A80B1012813D1D0
:1027300092F81912204602F21B2200F067FC0028D2
:102740000ADA2046BDE81040012100F037B82046E3
:10275000BDE81040FFF74CBF10BDD0F818020021B3
:102760000172704770B5D0F81842002105462172F9
:10277000617284F85D1284F85C12D0F81C02016862
:10278000002088470121284601F09CFB8121284632
:1027900001F098FB04F503722846BDE870401F2342
:1027A000012101F0EFBBD0F81822002111720121A4
:1027B00051721F2302F5037201F0E4BB70B5D0F82B
:1027C000184205460B48C4F82C0284F83812002041
:1027D00020720D2304F50B728121284601F060FC64
:1027E00004F503722846BDE870401F23012101F063
:1027F000C9BB0000555342533EB500241148009414
:10280000019402948460C4600D4944610160012513
:1028100005614FF460214460C161FDF7E9FD08B135
:10282000FDF744FD0920CDE90005694602940548FD
:10283000FDF760FD002801D0FDF738FD3EBD00002A
:1028400000240140640100200D4810B50B490160CF
:102850001021416000218160C16001614161017608
:1028600041768176C17601774177FDF77AFF0028BE
:1028700003D0BDE81040FDF719BD10BD0064004055
:10288000940100201D4808B5416941F001014161F2
:102890004069002200F00100009011460C20FEF774
:1028A000C7FB0C20FEF7B8FB002211460D20FEF7F7
:1028B000BFFB0D20FEF7B0FB002211460E20FEF7F5
:1028C000B7FB0E20FEF7A8FB002211460F20FEF7F3
:1028D000AFFB0F20FEF7A0FB002211461020FEF7F1
:1028E000A7FB1020FEF798FB002211461120FEF7EF
:1028F0009FFBBDE808401120FEF78EBB0010024090
:1029000010B504490448FDF7D2FC0249491E08707D
:1029100010BD0000310000201C0000200D4808B54B
:10292000816941F020018161816901F020010091FC
:10293000816941F004018161816901F00401009124
:10294000816941F008018161806900F00800009010
:1029500008BD0000001002400D4810B50B49016091
:102960000C49416000214FF480428160C0E90312AC
:1029700041618161C1610162FEF728FA002803D03C
:10298000BDE81040FDF792BC10BD000000540040AF
:10299000BC010020A0860100104810B50E4901605E
:1029A0004FF48271416000218160C1604FF4802248
:1029B0000161C0E905121822C0E907214162816264
:1029C0000A21C162FFF73EF9002803D0BDE810409C
:1029D000FDF76CBC10BD000000300140100200206B
:1029E00010B586B000241648009401940294039414
:1029F000049412490594C0E900148460C460046121
:102A000044618461FFF70AFA08B1FDF74FFC4FF407
:102A10008050009069460A48FFF774FA08B1FDF744
:102A200045FC049404A906480594FFF7CFF9002853
:102A300001D0FDF73BFC06B010BD0000002C0140AA
:102A4000F002002010B586B00024154800940194CF
:102A50000294039404944FF080410594C0E900145B
:102A60008460C46004618461FFF7D8F908B1FDF7A0
:102A70001DFC4FF48050009069460948FFF742FA68
:102A800008B1FDF713FC049404A905480594FFF769
:102A90009DF9002801D0FDF709FC06B010BD00002B
:102AA0003003002010B586B000241548009401942E
:102AB00002940394049411490594C0E900148460BD
:102AC000C46004618461FFF7A9F908B1FDF7EEFB6A
:102AD0004FF48050009069460948FFF713FA08B197
:102AE000FDF7E4FB049404A905480594FFF76EF98B
:102AF000002801D0FDF7DAFB06B010BD000400404D
:102B00007003002010B586B000241548009401948D
:102B100002940394049411490594C0E9001484605C
:102B2000C46004618461FFF779F908B1FDF7BEFB69
:102B30004FF48050009069460948FFF7E3F908B167
:102B4000FDF7B4FB049404A905480594FFF73EF98A
:102B5000002801D0FDF7AAFB06B010BD0008004018
:102B6000B00300200C4810B50A4901604FF4E13170
:102B70004160002181600C22C160C0E904128161C2
:102B8000C161FFF779FB002803D0BDE81040FDF7D5
:102B90008DBB10BD00380140F00300200C4810B57B
:102BA0000A4901604FF4E1314160002181600C224B
:102BB000C160C0E904128161C161FFF75DFB0028BB
:102BC00003D0BDE81040FDF771BB10BD00440040CC
:102BD000300400200C4810B50A4901604FF4E1317F
:102BE0004160002181600C22C160C0E90412816152
:102BF000C161FFF741FB002803D0BDE81040FDF79D
:102C000055BB10BD004800407004002010B50022E4
:102C10000F49104801F0A5F808B1FDF747FB0E4930
:102C20000C4801F022FB08B1FDF740FB0B490948B5
:102C300001F0A1FA08B1FDF739FB064801F062FB8B
:102C4000002803D0BDE81040FDF730BB10BD0000E8
:102C500038000020C0050020BC00002088000020B3
:102C6000FEE770470907090E002806DA00F00F009A
:102C700000F1E02080F8141D704700F1E02080F89A
:102C8000001470472DE9FC5F4FF000080446ADF8D2
:102C90000480ADF8008048F60F7B4FF002094FF436
:102CA000806692E1BDF8041011F00F072BD030F8C8
:102CB0002710ADF80010BDF80010090478D530F8E1
:102CC000272040F68F710A4020F8272004EB471593
:102CD00095F8320205F50A750028206869D0297830
:102CE00030F8212052047DD5B0F8503009EBC101F5
:102CF000194406EB4101415AC1F309015FEA010A97
:102D000071D0EA88D0E0BDF80410C9062AD4018841
:102D100001EA0B010180206804F12805B0F8502079
:102D20002B7809EBC301114406EB4101405AC0F373
:102D300009006064E16B0844E06300212046FEF76F
:102D4000C4F994F824000028ABD0A8690028A8D1C1
:102D500094F82400216840F08000A1F84C0084F829
:102D6000248032E1018804F50A75ADF80010BDF841
:102D7000001009051ED5B0F850302978062202EB64
:102D8000C101194406EB4101405A04F22C41C0F341
:102D90000903EB61AA88206801F0EAFE2068018837
:102DA00040F68F72114001802046FEF7B0FB0CE127
:102DB000A0E055E0BDF800100904D2D5028840F625
:102DC0008F710A4002802068B0F8503029780622BE
:102DD00002EBC101194406EB4101405A83059B0DEA
:102DE000EB6101E051E063E008D0AA8869692068DE
:102DF00001F0BEFEE9696869084468610021204667
:102E0000FEF76AF92068B0F85010891D06EB410101
:102E1000014428693E280CD9C0F34F12C00601D1E5
:102E2000521E92B24FF6FF7000EA822040F400403A
:102E300009E0C0F34F02C00701D0521C92B24FF616
:102E4000FF7000EA82200860216808884BF68F72C4
:102E5000104080F4405048F2800210430880B4E0F3
:102E6000B0F850202B78062101EBC301114406EB8A
:102E70004101415AC1F309015FEA010A24D0AA883D
:102E80005346696901F074FE1EE0B0F85020062335
:102E900003EBC101114406EB4101415AC1F30901A1
:102EA0005FEA010A04D02A895346696901F060FE8D
:102EB0002978206830F8213048F68F72134048F2A4
:102EC000C002134320F82130E96901EB0A00E861F0
:102ED000696901EB0A026A61AB6913B1286950455F
:102EE00004D929782046FEF7F7F803E02978204630
:102EF000FEF782F9BDF80000000666D5206804EBF5
:102F0000471530F8271001EA0B0120F8271095F833
:102F1000320028350028206812D0297830F8212086
:102F2000B0F8503052061ED509EBC101194406EB2A
:102F30004101405A83059B0DEB6124D0EA881EE0D5
:102F4000B0F850302A7809EBC201194406EB410170
:102F5000405A83059B0DEB6121D0AA8869692068DE
:102F600001F01DFE1BE0062202EBC101194406EB35
:102F70004101405A83059B0DEB6104D02A896969A0
:102F8000206801F00CFE2978206830F8212048F6EE
:102F90008F731A404CF280031A4320F821202068D6
:102FA000B0F850202B7809EBC301114406EB410126
:102FB000405AC0F30900E86169690A186A61297812
:102FC000AB69204663B1FEF759F92068B0F84410A8
:102FD000ADF8041009043FF565AE0020BDE8FC9F84
:102FE000FEF773F8F1E7704710B5D0F818421A44AD
:102FF000D4F860329A4206D92123052200F035FA2E
:103000004FF0FF3010BD002010BD00002DE9F04151
:10301000137800244FF0FF35232B73D00DDC1A2BCF
:1030200071D005DCBBB1032B36D0122B11D160E07F
:103030001B2B01D01E2B0CD181E02A2B73D004DC7A
:10304000252B71D0282B04D1A1E02F2B6DD05A2B2A
:103050006CD02023A9E0D0F8187206468846D7F82D
:10306000140240B197F81912202305224FEA0600F6
:1030700000F0FBF9A4E0D6F81C02816840468847BE
:1030800040B13A2302224146304600F0EEF90520D5
:10309000387295E07C8197E0D0F818120023C818A8
:1030A0005B1CDBB20473122BF9D3702008730C2065
:1030B000C87491F85C3291F85D02834212D001EB42
:1030C000C3005B1C90F83C528D7390F841520D7612
:1030D00090F840024876D8B281F85C02042801D109
:1030E00081F85C4212204881107912286CD84881FE
:1030F0006AE05578D0F81832ED0705D0072033493B
:10310000588114E03BE01EE0D0F81C0201EBC10145
:103110001279C06900EB81010879401D824200D814
:103120001046588108E036E02DE038E019E0401EF6
:1031300080B21D180A5C2A730028F8D144E0D0F848
:103140001802448140E0D0F818120820204A488133
:10315000401E0004000C01EB0005135C2B73F7D13B
:1031600032E0D0F8180208211A4A4181491E0904A8
:10317000090C00EB0105535C2B73F7D124E0BDE88B
:10318000F04100F03BB9BDE8F04100F00CB9BDE8FA
:10319000F04100F0B3B8BDE8F04100F081B95278D9
:1031A000D0F81862920702D52423052260E7B6F80A
:1031B000682293B2D6F86422FFF716FF002802DADD
:1031C0002846BDE8F08174812046FAE7B04C00083B
:1031D000B74C0008BF4C00082DE9F041D0F8184268
:1031E00006464FF40070D4F868520F46854200D36B
:1031F0000546B4F85E02B5FBF0F18BB2D4F8641268
:10320000B1FBF0F2D6F81C0204F10C018846D0F8AC
:1032100010C03846E047002809DA11230422394655
:10322000304600F022F94FF0FF30BDE8F081ABB23C
:1032300042468121304600F033FFD4F8640228442E
:10324000C4F86402D4F86802401BC4F86802D4F8D9
:103250003412A1EB0501C4F8341201D1032020720D
:103260000020E2E72DE9F047D0F818424FF400764D
:103270008846D4F868520746B54200D33546B4F8BC
:103280005E02B5FBF0F18BB2D4F86412B1FBF0F240
:10329000D7F81C0204F10C018946D0F814C040464E
:1032A000E047002809DA032304224146384600F0AB
:1032B000DCF84FF0FF30BDE8F087D4F86402284412
:1032C000C4F86402D4F86802401BC4F86802D4F859
:1032D0003412A1EB0501C4F834120AD0B04200D375
:1032E000304683B24A460121384600F04BFE0020AA
:1032F000E1E700213846FFF761FAF8E72DE9F041F0
:10330000D0F8184205461746207A8846F0BB94F854
:1033100018024FF0FF36000635D5D5F81C0281683B
:103320004046884730B13A2302224146284600F001
:103330009CF813E0D7F80200414600BA20F0FF02E3
:1033400078790243C4F86422B7F8070043BA2846E4
:10335000C4F86832FFF748FE002802DA3046BDE8BC
:10336000F08102202072B4F85E12D4F8640248435F
:10337000C4F86402D4F868024843C4F86802D4F878
:103380001412814206D094F8191200E002E02023C2
:103390000522CBE74FF40070608141462846BDE826
:1033A000F041FFF719BF70B505460E46D5E98640D6
:1033B00004F25E224368911C3046984740B13A239C
:1033C00002223146284600F050F84FF0FF3070BD21
:1033D000D4F86002401E010E2173010C6173010AD2
:1033E000A173E073002020746074B4F85E02010AD7
:1033F000A174E07408206081002070BD2DE9FC41BB
:103400000546D0F8184200200F4606462118401CF9
:1034100080B20E730C28F9D3D5F81C026A4601A9B4
:1034200043683846984748B13A230222394628462D
:1034300000F01BF84FF0FF30BDE8FC810820E0737E
:103440000198401E010E2174010C6174010AA174DF
:10345000E074022020756675BDF80000010AA175B0
:10346000E0750C2060810020E6E7D0F8180290F8A3
:103470005D1200EBC10181F83C2290F85D22190237
:1034800000EBC202C2F8401290F85D12491CC9B2AA
:1034900080F85D12042902D1002180F85D12704786
:1034A0002DE9F041D0F8184205461746207A8846A3
:1034B00020B12846BDE8F041FFF7D4BE94F81802C9
:1034C0004FF0FF3600063CD4D5F81C028168404618
:1034D000884728B13A230AE02846FFF7C6FF1DE0D7
:1034E000D5F81C02C1684046884718B1272302223C
:1034F0004146F1E7D7F80200414600BA20F0FF024A
:1035000078790243C4F86422B7F8070043BA284622
:10351000C4F86832FFF768FD002802DA3046BDE8DB
:10352000F081B4F85E02D4F864124143C4F8641226
:10353000D4F868124143C4F86812D4F814028842DF
:1035400004D0202394F819120522C5E70120207227
:103550004002814200D301468BB204F10C020121EA
:10356000284600F00FFD0020D9E700000148FEF7D3
:1035700007BB00001002002010B5406A0021C1877F
:10358000C186FEF7FBFA10BD4FF480300860C01111
:1035900010800020704700207047002070470020F6
:1035A0007047002070470020704700207047704728
:1035B000FDF7DABC30B593B028216846FCF7CBFDA7
:1035C00014210AA8FCF7C7FD002401200F941094D1
:1035D0001194010412948DE8130004904FF4E0104C
:1035E000CDE90810022507956846FEF745F90F203A
:1035F000CDE90A056802CDE90C4002210AA80E9423
:10360000FEF72EF812200F90A803CDE911040FA8A1
:10361000FDF7B0FF13B030BD0D48016841F0010166
:10362000016041680B4A1140416001680A4A11403B
:103630000160016821F480210160416821F4FE01EC
:1036400041604FF41F0181600449C0030860704766
:10365000001002400000FFF8FFFFF6FE08ED00E05A
:103660000148FEF7C9BC0000F00200200148FEF747
:10367000C3BC0000300300200148FEF7BDBC0000C1
:10368000700300200148FEF7B7BC0000B003002023
:10369000F0B50268164B174C174D4FF08047984213
:1036A00005D0B84203D0A04201D0A84203D122F0F5
:1036B00070064A683243984205D0B84203D0A0420F
:1036C00001D0A84203D122F44074CA68224322F0F8
:1036D00080044A69224302608A68C2620A68826280
:1036E000984201D10969016301214161F0BD0000E7
:1036F000002C0140000400400008004010B5846820
:1037000042EA032224F47F440A432243826010BD2C
:10371000826822F070020A4342F00701816070471C
:1037200010B5036A046A24F001040462846924F079
:10373000F00444EA021423F00A020A43846102629C
:1037400010BD10B5036A23F0100303628369046A95
:1037500023F4704343EA023224F0A00343EA011148
:103760008261016210BD10B5406A0021C185C1842B
:10377000FEF7F9FC10BD70B5446A2068406994F802
:103780003910C0F3C0100025212904D118B1E584F7
:10379000204600F03FF82068406994F83A10C0F3E2
:1037A0008010222904D118B1E585204600F024F8C4
:1037B000E06B40F01000E0632046FEF7D4FC70BDE3
:1037C00010B50146406A0968096889060CD40021D1
:1037D000C18401684A6922F080024A610068C168B8
:1037E00041F04001C16010BDFEF7AEFE10BD10B546
:1037F000406AFEF7BDFE10BD0168CA6822F49072EF
:10380000CA6001684A6922F001024A61202180F8F9
:103810003A1070470168CA6822F0C002CA602021CD
:1038200080F83910704710B590F83A10222901D06D
:10383000022010BD8168B1F5805F11D001690029B7
:1038400001681FD0496801F07F03816A4A1C8262C7
:103850000B70C18D491E0904090CC18518D02BE0DD
:103860000269816A002A0268526805D0D2B20A80D1
:10387000816A491C8162ECE7C2F308020A80816A0E
:10388000891CF7E74A68816A4B1C83620A70E0E78B
:103890000168CA6822F02002CA600168CA6822F47E
:1038A0008072CA6001684A6922F001024A612021DF
:1038B00080F83A10FEF706FE002010BD2DE9F04119
:1038C000044600680169E26821F440511143016136
:1038D0002169A0680843616908432168CA6841F208
:1038E0000C639A430243CA6020684169A26921F4CB
:1038F0004071114341614C49206864253226884259
:103900003CD1FDF773FF00EBC00101EB00106168D3
:103910008900B0FBF1F7FDF769FF00EBC00101EB97
:1039200000106168B0468900B0FBF1F0B0FBF5F023
:103930006FF01801484307EB800106EB0110B0FB64
:10394000F5F000F0F006FDF751FF00EBC00101EBD0
:10395000001061688900B0FBF1F0B0FBF5F006EBF8
:103960000016FDF743FF00EBC00101EB001061689A
:103970008900B0FBF1F7FDF739FF3BE0FDF726FFCB
:1039800000EBC00101EB001061688900B0FBF1F7AA
:10399000FDF71CFF00EBC00101EB00106168B046B1
:1039A0008900B0FBF1F0B0FBF5F06FF0180148436F
:1039B00007EB800106EB0110B0FBF5F000F0F0061C
:1039C000FDF704FF00EBC00101EB00106168890006
:1039D000B0FBF1F0B0FBF5F006EB0016FDF7F6FEDC
:1039E00000EBC00101EB001061688900B0FBF1F74A
:1039F000FDF7ECFE00EBC00101EB001061688900EF
:103A0000B0FBF1F0B0FBF5F06FF01801484307EBA5
:103A1000800108EB0110B0FBF5F0216800F00F0009
:103A200030448860BDE8F0810038014090F83910DA
:103A3000212901D0022070478168B1F5805F016AB9
:103A40000BD04A1C0262026809785160C18C491E81
:103A50000904090CC1840ED017E009880268C1F37B
:103A60000801516001690029016A02D0491C016204
:103A7000ECE7891CFBE70168CA6822F08002CA6093
:103A80000068C16841F04001C1600020704700003B
:103A90000148FEF769BB0000F00300200148FEF773
:103AA00063BB0000300400200148FEF75DBB00004E
:103AB0007004002010B5D0F81422526890470020FE
:103AC00010BD134610B50A46002100F05BFA002035
:103AD00010BD134610B50A46002100F0E1FA00209F
:103AE00010BD10B50446802100F0BFFA2046BDE8A5
:103AF0001040002100F0B9BA10B505210023C0F82C
:103B0000F4111A46194600F03DFA002010BD10B518
:103B100002238261C0F8F431C26113460A460021D3
:103B200000F0BEFA002010BD10B504210023C0F83B
:103B3000F4111A46194600F0B3FA002010BD000037
:103B400010B50A46024903A000F0DCF8004810BD99
:103B5000B40E00204D534320436F6E66696700002A
:103B600012200880004870475800002010B50A460F
:103B7000024903A000F0C6F8004810BDB40E0020B2
:103B80004D534320496E74657266616365000000A1
:103B900004200880004870475400002010B50A46F1
:103BA000024903A000F0AEF8004810BDB40E00209A
:103BB00053544D6963726F656C656374726F6E699F
:103BC0006373000010B50A46024903A000F09AF89A
:103BD000004810BDB40E002053544D3332204D61C7
:103BE00073732053746F72616765000010B51A20FB
:103BF00008800A480168001D0468001D0068081854
:103C000009D008220649FEF7B5FC05490422103107
:103C10002046FEF7AFFC0248801E10BDE8F7FF1FEC
:103C20006E000020F8B5044648880D46010A0829B0
:103C30004BD2DFE801F04A0409174A4A4048D4F859
:103C40001012207C0A6832E0207C02260028D4F87A
:103C5000140205D0C16A684688470146467041E0B3
:103C6000816AF8E7C0B206282FD2DFE800F0030827
:103C70000D12171CD4F81012207C4A6817E0D4F8F3
:103C80001012207C8A6812E0D4F81012207CCA68D6
:103C90000DE0D4F81012207C0A6908E0D4F8101264
:103CA000207C4A6903E0D4F81012207C8A696946B6
:103CB0009047014616E0207C38B9D4F81402416BD5
:103CC00068468847F5E7207C20B129462046FFF763
:103CD00008FFF8BDD4F81402016B68468847014616
:103CE00007204870BDF800000028F2D0EA88002ABA
:103CF000EFD0824200D90246ADF800202046FFF7FF
:103D000006FFF8BD70B5002300281DD0044600252D
:103D100002E06D1CEDB2641C2678002EF9D102245D
:103D200004EB45041480CC545B1C0322CA540024C9
:103D30005B1C06E0CA545B1CDAB28C54521CD3B232
:103D4000401C0278002AF5D170BD01004FF0000040
:103D500004D0012901D0022901D00220704701209E
:103D6000704710B580B1D0F8143213B10023C0F8F9
:103D7000143209B1C0F81012012180F8FC11027050
:103D800000F0AEF8002010BD022010BD10B5D0F834
:103D90002002FDF7C9F9BDE81040FFF7D6BF10B506
:103DA000D0F82002FDF7A0F9BDE81040FFF7CDBF25
:103DB0002DE9F0411746044641B1D4F81402426996
:103DC0008AB394F8FC01032842D043E0D4F8F411FC
:103DD000002504F11400022933D1D0E902639E4288
:103DE00007D9F31A83609AB239462046FFF771FE6D
:103DF00012E04068B0FBF3F103FB1101A1B9984256
:103E000012D3D4F8F81188420ED20022114620466F
:103E1000FFF75FFEC4F8F85100231A461946204602
:103E200000F0B0F80DE012E0D4F81402C16829B136
:103E300094F8FC01032801D1204688472046FFF76B
:103E40005BFE94F80002012804D184F8005201E0DE
:103E5000204690470020BDE8F08170B51546044625
:103E600041B1D4F8140282693AB394F8FC010328F2
:103E700024D025E0D4F8F41104F5827003291FD171
:103E8000D0E902218A420BD9531A83600846834243
:103E900000D303469AB229462046FFF712FE0FE0F0
:103EA000D4F81402016929B194F8FC01032801D166
:103EB000204688472046FFF737FE01E0204690471E
:103EC000002070BD10B5D0F82002FDF751F9BDE813
:103ED0001040FFF73ABFD0F82002FDF763B90000A9
:103EE00010B519490446C1F85C04C0F820121748FF
:103EF0000860082048600220886000208861C8614E
:103F000008620846FDF756FA08B1FCF7CFF900221F
:103F1000D4F820021823114604F50874FDF7BAF806
:103F20005823002280212068FDF7B4F8982300224E
:103F300081212068FDF7AEF8D823002201212068F6
:103F4000FDF7A8F8002010BD540A0020005C0040D6
:103F50000A06D0F8200201F07F0100EB411002D5E3
:103F600090F82A00704790F82A02704710B51C4656
:103F70001346D0F820022246FDF71CF9BDE8104098
:103F8000FFF7E3BE10B5D0F82002FDF735F9BDE824
:103F90001040FFF7DABE70B50022044640231146F8
:103FA000FFF7E4FF40252B46002280212046C4F87D
:103FB0001051FFF7DBFF0120256284F8FC01D4F8E3
:103FC000180228B1D4F8140221794268204690479B
:103FD000002070BD90F8FD1180F8FC1100207047A2
:103FE00010B590F8FC11032904D1D0F81412C96956
:103FF00001B18847002010BD01740020704710B542
:10400000D0F82002FDF76FFABDE81040FFF79DBE23
:1040100070B5044600F50270054600F012F9012063
:10402000C4F8F401B4F80E02C4F8F80194F80802D8
:1040300010F01F010AD001290DD0022910D000F084
:104040008001204600F011F8002070BD294620466E
:1040500000F05DF9F8E72946204600F03FFAF3E763
:104060002946204600F0CCF9EEE710B5D0F8200242
:10407000FDF7D9F8BDE81040FFF767BE10B5D0F8DE
:104080002002FDF74BFABDE81040FFF75EBE90F846
:10409000FC1180F8FD11042180F8FC11002070470C
:1040A00010B5D0F82002FDF7E9F8BDE81040FFF7A1
:1040B0004CBE10B5FEF717FB002010BD10B5FEF783
:1040C0002FFB002010BD10B504460121FFF767FE4D
:1040D00081212046FFF763FE2046FEF73EFBD4F821
:1040E000180220B100F014FA0020C4F818020020D1
:1040F00010BD00000A2101800048704754010020D3
:1041000020210180004870471401002020210180F7
:1041100000487047F40000202021018000487047CB
:104120003401002070B50546007C0024B8B140235E
:10413000022201212846FFF719FF40230222812194
:104140002846FFF713FF4FF41B7000F0E3F9C5F8A2
:10415000180270B12846FEF705FB204670BD4FF4EB
:1041600000763346022201212846FFF7FFFE334640
:10417000E4E70124F1E709B1C0F81C120020704700
:1041800070B50646D0F8185208780C4610F0600159
:1041900026D0202953D16178FE2902D0FF2919D1D8
:1041A0000EE06188B1B9E188012913D1000611D56B
:1041B000D6F81C028069804701222946286019E050
:1041C000618839B9E18829B9000603D43046FEF781
:1041D000EAFA34E021463046FFF783FC022070BD46
:1041E000607801280DD00A2802D00B2827D105E0DD
:1041F0000122291D3046FFF78AFC20E0A078686084
:104200001DE021793046FFF75DFE21793046FFF74A
:10421000C6FD20794FF400730006307C04D500B150
:1042200040230222812103E000B140230222012128
:104230003046FFF79BFE21793046FEF73FFA00201B
:1042400070BD0A7802704A7842708A78CB7802EBA7
:10425000032242800A794B7902EB032282808A7919
:10426000C97902EB0121C18070470246002011B1DB
:10427000C2F8141270470220704710B5D0F814220B
:1042800002241AB11268904700B90024204610BDDC
:1042900070B50E461A4D897804462970012928D830
:1042A00094F8FC01022802D0032822D105E099B13C
:1042B0000320616084F8FC0109E091B160688842E4
:1042C0000AD0C1B22046FFF7F5FB2978616020468D
:1042D000FFF7D3FF02280CD02046BDE87040FFF75F
:1042E00023BC022084F8FC0120466160FFF7E2FB5A
:1042F000F2E731462046BDE87040FFF7F2BB000010
:10430000B800002010B5FFF7B9FE002010BD2DE960
:10431000F04100264B78012532460A2B43D2DFE8D4
:1043200003F03C584251420805422A27FFF77AFC25
:1043300063E004468888C8B9C888B8B9887800F0AE
:104340007F0794F8FC01032810D084F8FE713946E9
:104350002046FFF754FE2046FFF7E6FB1FB1022080
:1043600084F8FC0149E084F8FC5146E020461AE05C
:10437000FFF78EFF41E0CB88012B14D190F8FC3180
:10438000022B02D0032B0ED104E08260012200F147
:10439000080114E00122011D11E090F8FC21022A1D
:1043A00004D0032A02D0FFF79CFB26E0C560D0F8BA
:1043B000041209B10321C160022200F10C01FFF7D0
:1043C000A6FB1AE004464888012816D1C4F8045216
:1043D0000BE0044690F8FC01022801D00328C5D167
:1043E0004888012809D1C4F80422D4F8140282684C
:1043F000204690472046FFF797FB3046BDE8F08106
:1044000070B50D460446287800260979C0F341109E
:10441000012806D06878A0B301281FD003283FD117
:1044200007E0D4F81402294682682046904700200D
:1044300070BD94F8FC01022817D003282CD168889D
:1044400028B921B1802902D02046FFF70EFED4F80A
:104450001402294682682046904713E094F8FC0134
:10446000022802D0032817D103E0C9B180291BD14B
:1044700016E06888A0B9480604D02046FFF786FCFD
:10448000E5E703E02046FFF74FFB09E094F8FC0165
:10449000022807D003280BD029462046FFF721FB2E
:1044A000304670BD4806FBD02046FFF7DEFDF7E73B
:1044B000080601F07F0004EB001501D5143501E07A
:1044C00005F582752046FFF743FD00B10120286005
:1044D000022229462046FFF71AFBE1E770B50546A0
:1044E00090F8FC010C4603280DD1207901280AD848
:1044F000D5F81402826828469047E08830B92846EB
:10450000FFF712FB02E02846FFF7EBFA002070BD30
:104510007047000000487047E40700202DE9F0478D
:10452000CC780A7848F68F1334B1012C6DD0022C68
:1045300008D0032C13D10BE030F822401C4044F487
:1045400000730AE030F822401C4020F8224006E0C8
:1045500030F822401C4044F4C06320F822300C782C
:1045600030F8245048F68F72154048F280031D43FE
:10457000254320F824508D7A48F6BF7904274BF65E
:104580008F7A48F2C0044CF28006EDB30D7830F813
:1045900025C048F280180CEA020C4CEA080C20F8FE
:1045A00025C0CD88B0F850C025F0010591F80080F5
:1045B0000CEBC80C00EB4C0CCCF800540D89B0F897
:1045C00050C025F0010591F8008007EBC80767444B
:1045D00000EB4707C7F800544D78002D0D7830F8F0
:1045E00025704FEA47477DD0002F05DA30F8257057
:1045F0001740374320F825700D7830F825707F0676
:1046000008D530F8257001E024E01DE0174027436D
:1046100020F825700C7830F824501540354320F8E8
:1046200024500C7830F8242002EA09021A4320F8BA
:1046300024200A7830F8221001EA0A01194320F8F0
:1046400022100020BDE8F08730F822401C4044F4DE
:10465000806382E74D78F5B18D88B0F8506025F021
:1046600001050F7806EBC70600EB4606C6F80054B6
:104670000D7830F82560760605D530F825601640AF
:10468000264320F825600A7830F8221001EA090153
:1046900081F02001D2E78C88B0F8505024F001045A
:1046A00091F800C007EBCC073D4400EB4505C5F889
:1046B0000044B0F850400D78062707EBC5052C44A0
:1046C00000EB44070C694FF6FF7C07F580673E2C32
:1046D0000CD9C4F34F15E40601D16D1EADB20CEA3E
:1046E000852400E01EE044F4004407E0C4F34F05D5
:1046F000E40701D06D1CADB20CEA85243C600C7857
:1047000030F824506D0405D530F824501540354359
:1047100020F824500A7830F8221001EA0A0181F4C6
:1047200040518BE7002F05DA30F8257017403743EA
:1047300020F825700D7830F82560760605D530F81C
:1047400025601640264320F825600E7830F8265064
:104750001540254320F826500C7830F8242002EA32
:104760000A0282F440521A4320F824200A7830F8D2
:10477000221001EA090161E7002070472DE9F043AA
:1047800091F80A8091F801C00A7848F6BF774BF695
:104790008F7948F2800348F2C0054CF2800648F653
:1047A0008F74B8F1000F2ED0BCF1000F30F822C08A
:1047B0004FEA4C4C4ED0BCF1000F07DA30F822C063
:1047C0000CEA040C4CEA060C20F822C00A7830F8F7
:1047D00022C05FEA4C6C07D530F822C00CEA040C0A
:1047E0004CEA050C20F822C00A7830F82250254007
:1047F000354320F822500C7830F824203A401A43F0
:1048000020F824201BE0BCF1000F0ED030F822600D
:10481000760605D530F8226026402E4320F8226027
:104820000A7830F8221039400EE030F822506D043A
:1048300005D530F822502540354320F822500A781B
:1048400030F8221001EA0901194320F82210002053
:10485000BDE8F083BCF1000F07DA30F822C00CEAA3
:10486000040C4CEA060C20F822C00A7830F82260CA
:10487000760605D530F8226026402E4320F82260C7
:104880000E7830F8262022402A4320F826200C7883
:1048900030F8242002EA09021A4320F82420BFE756
:1048A000002070470020704700B50121A0F840109B
:1048B0000021A0F84010A0F84410A0F8501000F01B
:1048C0003AF9002000BD30F8401F21F43D4101803D
:1048D000002070470020704730B54D780A78002DD1
:1048E00048F68F7430F8225048F2800312D06D06DB
:1048F00007D530F82250254048F2C004254320F85F
:1049000022500A7830F8221048F6BF74214081F016
:10491000300111E06D0407D530F8225025404CF2EB
:104920008004254320F822500A7830F822104BF6F4
:104930008F74214081F44051194320F82210002047
:1049400030BD10B50A7848F2800352B14978002989
:1049500030F8221010D048F6BF74214081F01001C9
:104960000FE001884BF6BF72114081F4805181F055
:1049700010011943018007E04BF68F74214081F448
:104980008051194320F82210002010BD2DE9F0417C
:104990000D460646896995F801C00023AA7A0227C8
:1049A00028690C4648F28008BCF1010F05D081420D
:1049B00052D90446081AA8614FE0814203D904463F
:1049C000081AA86100E0AB617AB1287836F82010A7
:1049D0004906B6F8501007EBC000084406EB40004B
:1049E000C0F8004412D52A8911E0A3B2AA88304643
:1049F000696900F0D4F8B6F85000297807EBC101D6
:104A0000084406EB4000C0F800441CE0EA88A3B26A
:104A10003046696900F0C3F8687848F68F7110B1C4
:104A2000012807D00FE0287836F820200A4048F205
:104A3000C00105E0287836F820200A404CF28001B9
:104A40000A4326F82020297836F8210048F6BF725C
:104A5000104080F0300067E0AB6106234FF6FF7036
:104A60001AB1BCF1000F1BD056E0B6F850102A78EE
:104A70003E2C03EBC202114406EB410202F58062B8
:104A800039D9C4F34F11E30632D000BF00EA8120C8
:104A900040F4004002E000BF00EA812010603BE0EB
:104AA000B6F850102A783E2C07EBC202114406EBF0
:104AB000410202F580620BD9C4F34F115FEAC46C66
:104AC00001D1491E89B200EA812141F4004108E088
:104AD000C4F34F015FEAC47C01D0491C89B200EAEB
:104AE0008121116069780029BFD001290AD013E023
:104AF000491E89B2CAE7C4F34F01E307CCD0491C71
:104B000089B2C9E7B6F85000297807EBC10108441B
:104B100006EB4000C0F80044297836F821004BF637
:104B20008F72104080F4405040EA080026F82100BF
:104B30000020BDE8F08130F8401F41F43F41018082
:104B400000207047002070470020704710B50448CF
:104B5000FBF709FDBDE810400248FCF7A4BB0000CC
:104B600094010020540A0020B0F84400704700006F
:104B70005B1C00EB42005B0800F5806006D000BFC4
:104B800030F8042B21F8022B5B1EF9D1704700206E
:104B9000704711B98021A0F84C100020704710B563
:104BA0005B1C00EB42005B0800F5806009D011F847
:104BB000012B5B1E11F8014B42EA042220F8042B62
:104BC000F5D110BD02480121017000787047000046
:104BD0001B0000200120704700207047024801217F
:104BE00001700078704700001B0000200020704713
:104BF000FEE702E008C8121F08C1002AFAD1704778
:104C00007047002001E001C1121F002AFBD170474C
:104C1000FCF7B2F9FEF7CEFCFDF780FEFDF732FEA1
:104C2000FDF7EAFDFDF710FEFDF796FEFDF7B4FE79
:104C3000FDF7D6FEFDF706FFFDF734FFFDF762FF37
:104C4000FDF790FFFDF7AAFFFDF7C4FFFDF7DEFFBC
:104C5000FDF756FE4FF47A742046FBF7C1FF1B2286
:104C600002490348FDF730FCF6E700000000002091
:104C7000F0030020008002021F00000053544D206A
:104C80002020202050726F64756374202020202023
:104C900020202020302E30310000000000000000D5
:104CA00001020304060708090000000001020304D2
:104CB00000000003008083000000000000000000EE
:104CC0000600000000000000E84C00080000002082
:104CD0006401000090010008B84D00086401002044
:104CE0005C130000024C00081E74686973200310F6
:104CF0001361207465737420666F7220756172741D
:104D0000310D0A1401C54B1B08DD041AD9041AED34
:104D1000041AD5048113613B1B0891041A9D041ADF
:104D2000C5041AED041A41041A6D0417040309049A
:104D300012013202164083042A572602010203019F
:104D4000031A1A03139B351B0889041A9F041AA31C
:104D5000041AA7041AAB041A970413744C1A083FD8
:104D600011821044A24A041325411408C7401B08AD
:104D70008108811AB3101ABD04C11A0D201A01044A
:104D80001A19041AF51C140902201F010104C0326B
:104D90000947180A020806500507058102B02C07CA
:104DA0000501070914202240292019070B1C0907B7
:084DB000204B0A06FC29B44166
:04000005080000ED02
:00000001FF
